S01700004763634170706C69636174696F6E322E737265635A
S11300000C9492000C94FB040C94C9020C94BA0056
S11300100C94A1050C94BA000C94BA000C94BA0088
S11300200C94BA000C94BA000C94BA000C945705C2
S11300300C94BA000C94BA000C94BA000C94BA0054
S11300400C94BA000C94BA000C94BA000C94BA0044
S11300500C94BA00084AD73B3BCE016E84BCBFFD6A
S1130060C12F3D6C74319ABD56833DDA3D00C77F84
S113007011BED9E4BB4C3E916BAAAABE000000801D
S11300803F05A84CCDB2D44EB93836A9020C50B9AC
S1130090918688083CA6AAAA2ABE000000803F07D1
S11300A0634236B79BD8A71A39685618AEBAAB550F
S11300B08C1D3CB7CC5763BD6DEDFD753EF61772D4
S11300C031BF000000803F08000000BE92244912A6
S11300D03EABAAAA2ABECDCCCC4C3E00000080BECA
S11300E0ABAAAAAA3E00000000BF000000803F00A7
S11300F000000000084178D3BB4387D1133D190E9B
S11301003CC3BD4282AD2B3E68EC8276BED98FE102
S1130110A93E4C80EFFFBE01C4FF7F3F00000000FA
S11301200000681B11241FBECFE5D8E0DEBFCDBFA1
S113013011E0A0E6B0E0E2E9F1E402C005900D921E
S1130140AC35B107D9F722E0ACE5B1E001C01D92AE
S1130150A736B207E1F711E0C4E2D1E004C0229768
S1130160FE010E949220C232D107C9F70E941819D9
S11301700C94C7200C94000095ED9A95F1F70000BB
S1130180882314F4DE9A01C0DE9886FF02C0DF9A49
S113019001C0DF9885FF02C0AF9A01C0AF9884FF09
S11301A002C0AD9A01C0AD98AB9AAB9883FF02C070
S11301B0DE9A01C0DE9882FF02C0DF9A01C0DF9898
S11301C081FF02C0AF9A01C0AF9880FF02C0AD9A10
S11301D001C0AD98AB9AAB98089510BC19B8539A66
S11301E080B5866880BD08958CB95D9BFECF089567
S11301F05F9BFECF8CB10895DF92EF92FF920F9335
S11302001F93CF93DF93182FC62FE42E899A549807
S1130210539AD42FDE5FD62ED80EDD0E8FEF0E94B8
S1130220F4008FEF0E94F400812F0E94F4008D2FC0
S11302300E94F4008C2F0E94F400EE2089F0CFE499
S1130240D2E04E2D50E07E01E40EF51E8E01899120
S11302500E94F400F8018081D80ECE15DF05B1F7B5
S11302608D2D80950E94F4008998549A5398DF91BB
S1130270CF911F910F91FF90EF90DF900895DF923F
S1130280EF92FF920F931F93CF93DF93D82FC62F34
S1130290E42E899A5498539A8C5FD82ED60E8FEFF9
S11302A00E94F4008FEF0E94F4008D2F0E94F4004E
S11302B084E00E94F4008C2F0E94F400EE2089F068
S11302C0CFE4D2E04E2D50E07E01E40EF51E8E0107
S11302D089910E94F400F8018081D80ECE15DF05C3
S11302E0B1F78D2D80950E94F4008998549A539803
S11302F0DF91CF911F910F91FF90EF90DF900895C0
S113030083E080934F0281E08093500242E063E0F7
S11303108EEF0E94FC00089588E180934F0281E0F3
S11303208093500242E063E00E94FC000895BC0107
S113033080E090E00E944E1D21E73DE34AE550E451
S11303400E94691E0E94221D8091A30080934F0287
S1130350609350027093510243E063E081E00E9495
S1130360FC0008952091A20020934F028093500234
S11303709093510243E063E081E00E94FC00089501
S11303808EE080934F028FEF8093500283E080933E
S1130390510243E063E081E00E94FC0008950E9462
S11303A0ED000E9480010E948C010E94C0018FEF29
S11303B093E00E94B201089584E280934F0282E0A8
S11303C08093500242E062E081E00E943F01089580
S11303D0AC9881E00E94BC008FE39FE10197F1F7A4
S11303E000C000000895CF93DF93EC01AC9A88819C
S11303F0882331F021960E94BC0089918111FBCFA2
S1130400DF91CF910895AC9A0E94BC000895AC98F6
S113041080680E94BC000895A49AA39AD69AD79A99
S1130420A79AA59AAC98AB988FE59AEE0197F1F745
S113043000C00000AD9AAF9ADF98DE98AB9AAB98F3
S11304408FE19EE40197F1F700C00000AB9AAB98EE
S11304508FE193E00197F1F700C00000AB9AAB98ED
S11304608FE193E00197F1F700C00000AD98AF9AD7
S1130470DF98DE98AB9AAB9888E20E94BC008CE0CF
S11304800E94BC000E94E80186E00E94BC0008951E
S1130490CF93DF9300D000D000D0CDB7DEB74AE0D1
S11304A050E0BE016F5F7F4F0E949620CE010196FF
S11304B00E94F30126960FB6F894DEBF0FBECDBF9F
S11304C0DF91CF91089590E4699F800D11240E94DB
S11304D007020895CF92DF92EF92FF920F931F933A
S11304E0CF93DF93CDB7DEB7FE013B96A191B191D7
S11304F06F018C918823D1F18D01853269F57801E2
S11305008FEFE81AF80AF8018181843619F08337ED
S113051001F50AC086010E5F1F4FF60180819181AB
S11305200E94480268011BC0F60182E0C80ED11C7B
S11305300190F081E02D8081882389F08F010F5F85
S11305401F4F0E940302F80181918F018111F9CF9D
S113055006C00E94030203C00E94030278018701BF
S11305600F5F1F4FF70181818111C7CFDF91CF91B9
S11305701F910F91FF90EF90DF90CF9008957894A2
S113058085B78C6085BF8BB780688BBF8B98939A37
S113059008951F920F920FB60F9211248F939F9379
S11305A080914D0290914E02019690934E02809359
S11305B04D029F918F910F900FBE0F901F90189531
S11305C00E94BF028AB383608ABB089510924E02D0
S11305D010924D028BB383608BBB8FE99FE0019730
S11305E0F1F700C0000080914D0290914E0290936B
S11305F04A028093490210924E0210924D028BB32C
S11306008C7F8BBB8FE99FE00197F1F700C000005E
S113061080914D0290914E0290934C0280934B0234
S113062010924E0210924D02D998D89A8FE99FE009
S11306300197F1F700C0000080914D0290914E02A5
S1130640909348028093470208952F923F924F92CD
S11306505F926F927F928F929F92AF92BF92CF924E
S1130660DF92EF92FF920F931F93CF93DF93CDB757
S1130670DEB728970FB6F894DEBF0FBECDBF0E9439
S1130680E602E0904B02F0904C0220904902309038
S11306904A020091470210914802229CB001239C17
S11306A0700D700D1124EE9CC001EF9C900D900D07
S11306B01124680F791F009FC001019F900D900DB8
S11306C01124680F791F80E090E00E944E1D0E9463
S11306D0221F2B013C01B70180E090E00E944E1DD7
S11306E0A30192010E94B51CC62ED72EE82EF92E26
S11306F0862F9D2DAE2DBF2D809327029093280227
S1130700A0932902B0932A02B80180E090E00E94ED
S11307104E1DA30192010E94B51C862E972EA82E71
S1130720B92E862F992DAA2DBB2D80931F0290934D
S11307302002A0932102B0932202B10180E090E054
S11307400E944E1DA30192010E94B51C062F172F73
S113075088879F83382F292F862F912FA32FB22F7D
S11307608093230290932402A0932502B09326023F
S1130770202F312F4A2F5B2F6C2D7D2D8E2D9F2DF9
S11307800E94B51C662E772E482E592E862F972D43
S1130790A42DB52D8093430290934402A093450267
S11307A0B0934602282D392D4A2D5B2D6C2D7D2DBD
S11307B08E2D9F2D0E94B51C6B837C838D839E831D
S11307C0472F382F292F862F942FA32FB22F8093B2
S11307D03F0290934002A0934102B0934202282D1D
S11307E0392D4A2D5B2DF885EF81602F712F8F2FC6
S11307F09E2F0E94B51C60932F0270933002809349
S11308003102909332022C2D3D2D4E2D5F2D682DFB
S1130810792D8A2D9B2D0E94B51C262E372E898377
S11308209A83382F292F862F932DA32FB22F8093AD
S1130830370290933802A0933902B0933A02988514
S11308408F81202F312F492F582F682D792D8A2DF4
S11308509B2D0E94B51C862E972EA82EB92E862F6E
S1130860992DAA2DBB2D80933B0290933C02A0931B
S11308703D02B0933E022C2D3D2D4E2D5F2DF8856B
S1130880EF81602F712F8F2F9E2F0E94B51C062F92
S1130890172FC82EF92E862F912FAC2DBF2D8093A4
S11308A0330290933402A0933502B09336022DECB8
S11308B03CEC4CEC5FE3662D772D842D952D0E9446
S11308C05E1E1816BCF426E636E646EE5FE3BB81F0
S11308D0AC81ED80DE806B2F7A2F8E2D9D2D0E94B2
S11308E05E1E18163CF481E090E090932E028093F3
S11308F02D0260C023E333E343EF5FE3E980DA8052
S1130900622D732D8E2D9D2D0E945E1E1816FCF4F3
S113091023E333E343EB5FE3682D792D8A2D9B2D8D
S11309200E945E1E18169CF42AE939E949ED5FE33A
S1130930682D792D8A2D9B2D0E94AE1C88233CF4B2
S113094082E090E090932E0280932D0233C02AE936
S113095039E949E95FE3682D792D8A2D9B2D0E94A1
S1130960AE1C8823FCF42AE939E949EB5FE3602FE4
S1130970712F8C2D9F2D0E945E1E18169CF426E666
S113098036E646EE5FE3602F712F8C2D9F2D0E947B
S1130990AE1C88233CF483E090E090932E02809375
S11309A02D0208C080912B0290912C0290932E026C
S11309B080932D0280912D0290912E0280932B0220
S11309C090932C0228960FB6F894DEBF0FBECDBFCD
S11309D0DF91CF911F910F91FF90EF90DF90CF9017
S11309E0BF90AF909F908F907F906F905F904F904B
S11309F03F902F9008951F920F920FB60F921124DB
S1130A008F939F93859B1BC080911D0290911E0222
S1130A10019790931E0280931D0280911D02909174
S1130A201E0287709927892B21F5809119029091D4
S1130A301A02019790931A02809319021AC08091A6
S1130A401D0290911E02019690931E0280931D0236
S1130A5080911D0290911E0287709927892B49F479
S1130A608091190290911A02019690931A02809330
S1130A7019029F918F910F900FBE0F901F901895A0
S1130A8085B7836085BF8BB780648BBF81B38B7D53
S1130A9081BB82B3846282BB089583B7856083BFC0
S1130AA089B7816089BF88B7816088BF08951F9224
S1130AB00F920FB60F9211242F933F938F939F930E
S1130AC080911D0290911E0220911B0230911C0204
S1130AD0821B930B9093160280931502809115024A
S1130AE090911602909314028093130280911D0238
S1130AF090911E0290931C0280931B028091190214
S1130B0090911A0290931802809317028091110217
S1130B1090911202019690931202809311029F9178
S1130B208F913F912F910F900FBE0F901F901895AA
S1130B3085B58F6085BD89B7806889BF8DE483BD25
S1130B4008951F920F920FB60F9211248F939F93C3
S1130B5080910D0290910E02019690930E02809363
S1130B600D029F918F910F900FBE0F901F901895BB
S1130B700E94A11B8CE30E94A51B80E00E94CC1B59
S1130B8080E70E94CC1B0E94C61B8CE30E94A51B1D
S1130B9081E00E94CC1B80EA0E94CC1B0E94C61BF1
S1130BA08CE30E94A51B82E00E94CC1B80E00E9483
S1130BB0CC1B0E94C61B08958CE30E94A51B83E0F6
S1130BC00E94CC1B0E94C61B8DE30E94C31B0E9483
S1130BD0D91B10920B0280930C020E94D91B209106
S1130BE00B0230910C02282B30930C0220930B0241
S1130BF00E94D91B10920702809308020E94D91BFD
S1130C002091070230910802282B30930802209388
S1130C1007020E94D91B1092090280930A020E94C3
S1130C20E01B2091090230910A02282B30930A021A
S1130C30209309020E94C61B0895CF93DF93C8EE48
S1130C40D3E00E94DC0580910B0290910C0220916C
S1130C50F7013091F801281739072CF49093F80123
S1130C608093F7010BC02091F1013091F2018217BA
S1130C70930724F49093F2018093F1018091090287
S1130C8090910A022091F5013091F6012817390755
S1130C902CF49093F6018093F5010BC02091EF01A1
S1130CA03091F0018217930724F49093F00180931C
S1130CB0EF0180910702909108022091F301309195
S1130CC0F401281739072CF49093F4018093F3016D
S1130CD00BC02091ED013091EE018217930724F4AB
S1130CE09093EE018093ED018FE39CE90197F1F776
S1130CF000C00000219709F0A4CF2091F7013091A2
S1130D00F8018091F1019091F201820F931F9923D0
S1130D100CF40196959587959093A1008093A0007B
S1130D202091EF013091F0018091F5019091F6014D
S1130D30820F931F99230CF40196959587959093B0
S1130D409F0080939E002091ED013091EE018091EF
S1130D50F3019091F401820F931F99230CF40196EF
S1130D60959587959093EC018093EB01DF91CF915A
S1130D700895CF92DF92EF92FF92CF93DF930E9478
S1130D80DC0560910B0270910C028091A00090919F
S1130D90A100681B790B70930C0260930B02C09145
S1130DA00902D0910A0280919E0090919F00C81B75
S1130DB0D90BD0930A02C093090280910702909143
S1130DC008022091EB013091EC01821B930B90936C
S1130DD0080280930702882777FD8095982F0E9448
S1130DE0501D6B017C01BE01882777FD8095982FEB
S1130DF00E94501DA70196010E945B1C20E030E078
S1130E0044E353E40E94691E2BED3FE049E450E4BF
S1130E100E94B51C20E030E044E353E40E94E81B48
S1130E20E62EF72ED82FC92F982F4E2D5F2D692F20
S1130E307C2F4093FD015093FE016093FF0170935A
S1130E4000026091010270910202882777FD80956B
S1130E50982F0E94501D9B01AC016E2D7F2D8D2F6C
S1130E609C2F0E94E71BE62EF72ED82FC92F20E0D7
S1130E7030E0A9010E94AE1C88239CF420E030E0FD
S1130E8044EB53E46E2D7F2D8D2F9C2F0E94E81B85
S1130E906093F9017093FA018093FB019093FC0134
S1130EA02BC020E030E044EB53E46E2D7F2D8D2FDA
S1130EB09C2F0E945E1E18166CF08E2D9F2DAD2F58
S1130EC0BC2F8093F9019093FA01A093FB01B09396
S1130ED0FC0112C020E030E044EB53E46E2D7F2D82
S1130EE08D2F9C2F0E94E71B6093F9017093FA01E8
S1130EF08093FB019093FC015091F9014091FA0118
S1130F003091FB012091FC01652F742F832F922FC8
S1130F10DF91CF91FF90EF90DF90CF9008950E94E2
S1130F20B9060E941D1D7093040260930302CB0155
S1130F30845B9109909302028093010208950E94B8
S1130F4040050E944D050E9498050E94CF017894A7
S1130F500E940C020E94E0020E94B805A2988F9899
S1130F60A698D39808950F931F93CF93DF930E946D
S1130F708F070E94B9060E941D1D9B0170930602F3
S1130F80609305029A9935C02A55310930936B0054
S1130F9020936A0010925F0110925E018FEF9FEF21
S1130FA090939D0080939C00209101023091020255
S1130FB08BEF90E0821B930B893641E094074CF051
S1130FC083E99FEF821B930B90937D0180937C01B7
S1130FD046C099232CF090937D0180937C013FC0FF
S1130FE083E692E0821B930B90937D0180937C01B6
S1130FF036C09A9B34C02A55310930936B00209334
S11310006A0081E090E090935F0180935E01909389
S11310109D0080939C00209101023091020287E49C
S113102090E0821B930B893641E094074CF08FEDDE
S11310309EEF821B930B90937D0180937C010FC0E4
S113104099232CF090937D0180937C0108C08FEA52
S113105091E0821B930B90937D0180937C010E940D
S1131060E80180915F018F9380915E018F9384EA00
S113107090E09F938F930E946A0261E080E00E9457
S1131080630280916B008F9380916A008F938091AB
S113109006028F93809105028F9386EB90E09F93D5
S11310A08F930E946A028FEF93ED20E3815090406A
S11310B02040E1F700C000008DB79EB70A960FB636
S11310C0F8949EBF0FBE8DBF879937C00E94B906A2
S11310D00E941D1D9B01709306026093050280917E
S11310E05E0190915F01009739F4245B31093093DC
S11310F06B0020936A0006C0019721F430936B00C3
S113110020936A000E94E80180916B008F93809184
S11311106A008F9380EC90E09F938F930E946A0201
S11311209FEF23ED40E3915020404040E1F700C0A1
S113113000000F900F900F900F90CB992AC001E000
S113114010E0CEEED0E09E9998C080917A01909103
S11311507B01892B09F483C090C010927B0110920B
S11311607A010E94E80180916D018F9380916C0156
S11311708F93DF93CF930E946A028FE39CE90197D8
S1131180F1F700C000000F900F900F900F90CB9BD1
S1131190DACF9E9958C0CB9973C055C00E94B90646
S11311A00E941D1D70930602609305020E94E801CF
S11311B08091F6018F938091F5018F938091F201D4
S11311C08F938091F1018F938091F8018F93809197
S11311D0F7018F93809106028F93809105028F937C
S11311E01F930F930E946A0261E080E00E946302F1
S11311F08091F0018F938091EF018F9380919F00F4
S11312008F9380919E008F938091A1008F93809102
S1131210A0008F93DF93CF930E946A028FE39CE92F
S11312200197F1F700C000008DB79EB742960FB644
S1131230F8949EBF0FBE8DBF9E9909C010926101A4
S11312401092600104C004EF10E0C0EDD0E0809182
S1131250600190916101019709F4A0CF34C080919D
S11312606C0190916D01019690936D0180936C01D6
S113127010937B0100937A0174CF9E996ECF71CF46
S11312808091AD019091AE014E970E9497019FEF1E
S11312902DE242E2915020404040E1F700C00000BE
S11312A00E94E8018DED90E09F938F930E946A0263
S11312B00E941D0681E090E090936101809360019B
S11312C00F900F90C0CFDF91CF911F910F91089590
S11312D00F931F93CF93DF930E94DC011CB8CDE5DD
S11312E0D2E006E612E00E94F8008993C017D10705
S11312F0D1F77091640260E080916302682B70936F
S11313005A026093590280E090E00E944E1D21E74A
S11313103DE34AE550E40E94B51C0E941D1D7093F4
S11313205C0260935B02DF91CF911F910F9108954E
S11313308091840090918500019731F40E942503E7
S11313409093C0018093BF018091BF019091C0012F
S11313508130910551F58091BD019091BE010297B4
S113136009F040C010921E0210921D0210921C023D
S113137010921B0281E090E09093790180937801B0
S11313809093770180937601909375018093740113
S1131390109265001092640010926700109266002B
S11313A010926300109262000895029709F04CC0F5
S11313B08091BD019091BE01019709F045C0109242
S11313C01A021092190210921E0210921D0210921B
S11313D085001092840081E090E0909373018093E3
S11313E0720108958091BD019091BE01039761F54A
S11313F080911D0290911E028134964034F48091B4
S1131400680090916900019769F480916C01909152
S11314106D01019690936D0180936C0110926900A7
S11314201092680080916C0190916D01039741F4D2
S113143010921E0210921D0210921C0210921B02A6
S113144010921E0210921D0208950F931F93CF93C2
S1131450DF93809178019091790181309105A9F50C
S11314608091760190917701019709F0F3C1809101
S1131470740190917501019709F0ECC180911D02EE
S113148090911E0220911B0230911C02821B930B2F
S11314901AF491958195910903970CF04EC18091AE
S11314A01D0290911E02813991400CF446C1809135
S11314B01D0290911E028A3194400CF40DC13DC16D
S11314C01092790110927801C5C1892B09F0C2C12B
S11314D08091760190917701019709F03FC0809146
S11314E07401909175010197C9F580911D02909145
S11314F01E02893893410CF059C130C08091BB0160
S11315009091BC019C01235231093093AC0120938A
S1131510AB019093AE018093AD0111C0019779F4B2
S11315208091BB019091BC019C01235231093093FD
S1131530AC012093AB019093AE018093AD01109266
S1131540790110927801109277011092760181E06E
S113155090E090937501809374017CC18091760131
S113156090917701892B09F075C180917401909154
S11315707501019709F06EC180911D0290911E02C0
S1131580893690410CF466C120911D0230911E02EF
S113159080911B0290911C02821793070CF048C1A2
S11315A059C180915E0190915F01009711F560919E
S11315B082007091830064567109882777FD8095B5
S11315C0982F0E94501D6093B7017093B8018093C7
S11315D0B9019093BA016091B7017091B8018091FB
S11315E0B9019091BA010E94221DCB010E9497017A
S11315F023C0019709F560918200709183006C59B2
S11316007F4F882777FD8095982F0E94501D609307
S1131610B7017093B8018093B9019093BA016091B6
S1131620B7017091B8018091B9019091BA010E94FB
S1131630221DCB010E9497018FEF90E722E0815099
S113164090402040E1F700C000000E94E801809132
S11316501D0290911E022091DC012F932091DB0149
S11316602F939F938F931F930F930E946A0261E0BD
S113167080E00E9463028091DE018F938091DD01FE
S11316808F938091E0018F938091DF018F938091FC
S1131690E2018F938091E1018F9320E030E048ECE8
S11316A052E46091660170916701809168019091A4
S11316B069010E94691E0E941D1D7F936F93DF9331
S11316C0CF930E946A028DB79EB740960FB6F894E6
S11316D09EBF0FBE8DBF65CF80E090E0A0ECBFE35E
S11316E08093980090939900A0939A00B0939B00E4
S11316F080E090E0A0E8BFE38093880090938900A5
S1131700A0938A00B0938B0086EA9BE9A4E4BBE330
S11317108093940090939500A0939600B0939700C3
S113172080E090E0A0EFB1E480939000909391006A
S1131730A0939200B09393008DC08AE097EDA3EA42
S1131740BBE38093980090939900A0939A00B09380
S11317509B0080E090E0A0E2B0E480938800909346
S11317608900A0938A00B0938B008FE692E1A3E8EE
S1131770BBE38093940090939500A0939600B0935C
S1131780970080E090E0A0EFB1E480939000909304
S11317909100A0939200B093930080911D029091C8
S11317A01E028B3194400CF08BCE54C081E090E04B
S11317B090938100809380008AE097EDA3EABBE3D5
S11317C08093980090939900A0939A00B0939B0003
S11317D080E090E0A0E2B0E48093880090938900D8
S11317E0A0938A00B0938B008FE692E1A3E0BBE361
S11317F08093940090939500A0939600B0939700E3
S113180080E090E0A0EFB1E4809390009093910089
S1131810A0939200B093930010926500109264001C
S113182080915E0190915F01009709F467CE76CEB6
S113183010928100109280008FEF9FE027E2815088
S113184090402040E1F700C0000009EE10E0C1EF35
S1131850D0E0A7CEDF91CF911F910F9108952F92E1
S11318603F924F925F926F927F928F929F92AF922C
S1131870BF92CF92DF92EF92FF920F931F93CF9379
S1131880DF93CDB7DEB72F970FB6F894DEBF0FBE48
S1131890CDBF80916C0190916D01039709F0ABC4A9
S11318A08091620090916300019709F0A4C41092A2
S11318B081001092800010927C0010927D001092A2
S11318C07E0010927F008CEC9BECA2E2B2EC809341
S11318D0A3019093A401A093A501B093A601109233
S11318E09B0110929C0110929D0110929E011092F6
S11318F09F011092A0011092A1011092A2011092D6
S11319001E0210921D0210921C0210921B0281E012
S113191090E090936B0180936A011A821B821C826F
S11319201D821A861B861C861D86312C3982809165
S1131930130290911402892B81F16091130270912A
S11319401402882777FD8095982F0E94501D9B01D3
S1131950AC01BA85AB85EC851D856B2F7A2F8E2F54
S1131960912F0E94E81B6A877B878C879D8720E0E4
S113197030E040E85FE3BA81AB81EC811D816B2FDD
S11319807A2F8E2F912F0E94E81B6A837B838C838E
S11319909D83109214021092130220E030E040E87C
S11319A050E4BA81AB81EC811D816B2F7A2F8E2F8D
S11319B0912F0E945E1E88230CF4FFC00E94B9067A
S11319C00E941D1D7B01709306026093050228E4AA
S11319D031EE42E051E4BA85AB85EC851D856B2F71
S11319E07A2F8E2F912F0E94B51C362E272E082F6A
S11319F0192F80916A0090916B00B701681B790BD5
S1131A00882777FD8095982F0E94501D26E53EE09B
S1131A1049E450E40E94691E20E030E044E353E4CA
S1131A200E94B51CC62ED72EE82EF92E0E94B21C99
S1131A304B015C019B01AC01632D722D802F912F12
S1131A400E94691E20917C0030917D0040917E00AF
S1131A5050917F000E94E81B462E572E682E792E47
S1131A60862F952DA62DB72D80937C0090937D0015
S1131A70A0937E00B0937F006C2D7D2D8E2D9F2D25
S1131A800E94181F6B017C019B01AC01632D722D18
S1131A90802F912F0E94691E2091A3013091A401EF
S1131AA04091A5015091A6010E94E81B062F172F13
S1131AB0282E392E862F912FA22DB32D8093A3018A
S1131AC09093A401A093A501B093A60120E030E077
S1131AD04CEB51E4C701B6010E94691E9B01AC01A5
S1131AE0602F712F822D932D0E94E81B062F172F34
S1131AF0282E392E862F912FA22DB32D80939F014E
S1131B009093A001A093A101B093A20120E030E042
S1131B104CEB51E4C501B4010E94691E9B01AC0168
S1131B20642D752D862D972D0E94E81B60939B01D3
S1131B3070939C0180939D0190939E01209162017A
S1131B40309163014091640150916501602F712FC0
S1131B50822D932D0E94E71BC62ED72EE82EF92E38
S1131B6020916601309167014091680150916901AB
S1131B700E945E1E181664F48C2D9D2DAE2DBF2D73
S1131B808093660190936701A0936801B093690103
S1131B90802F912FA22DB32D809362019093630126
S1131BA0A0936401B093650129812A832B832C833C
S1131BB02D832A872B872C872D8760916000709155
S1131BC06100882777FD8095982F0E94501D6B0136
S1131BD07C0120919F013091A0014091A10150917D
S1131BE0A2010E94E71B062F172FA82EB92E762FCD
S1131BF0272F312F4A2D5B2DC701B6010E94AE1C41
S1131C0088236CF0802F912FAA2DBB2D8093E701A0
S1131C109093E801A093E901B093EA0108C0C0924F
S1131C20E701D092E801E092E901F092EA01209004
S1131C305E0130905F0121143104D9F460916A008F
S1131C4070916B006C547F4F809105029091060255
S1131C50681B790B882777FD8095982F0E94501D6B
S1131C606093E3017093E4018093E5019093E601AE
S1131C701CC031E023163104C1F460910502709157
S1131C80060280916A0090916B00681B790B88278B
S1131C9077FD8095982F0E94501D6093E301709307
S1131CA0E4018093E5019093E6018090E701909030
S1131CB0E801A090E901B090EA01C501B4010E94D5
S1131CC01D1D862F972F99231CF4919581959109B9
S1131CD06EE170E0681B790B882777FD8095982F5B
S1131CE00E94501D2B013C0126E636E646EE5EE3DB
S1131CF00E94691E20E030E040EF51E40E94B51CD0
S1131D002DEC3CEC4CE05FE30E94E81B6E877F8780
S1131D10182F092F60919C0070919D00882777FDF2
S1131D208095982F0E94501D6B017C016091820068
S1131D3070918300882777FD8095982F0E94501D0D
S1131D406E837F8388879987A7019601C501B401B3
S1131D500E94691E4B015C0120E030E040EC5FE32F
S1131D60C301B2010E94691E20E030E040EF51E45B
S1131D700E94B51C20E030E040E85FE30E94E81BCD
S1131D809B01AC01C501B4010E94691E9B01AC0119
S1131D906E817F81888599850E94E71B4B015C01D8
S1131DA02091E3013091E4014091E5015091E60175
S1131DB0C701B6010E94691EBE85AF852B2F3A2F3D
S1131DC0412F502F0E94691E9B01AC01C501B40133
S1131DD00E94E81B4B015C01209166013091670170
S1131DE04091680150916901C701B6010E94691EC2
S1131DF020E030E0A9010E94691E9B01AC01C501ED
S1131E00B4010E94E81B462F572F682F792F409367
S1131E10B7015093B8016093B9017093BA012114CA
S1131E20310409F047C06091AD017091AE01615475
S1131E307109882777FD8095982F0E94501D6B01AA
S1131E407C012091B7013091B8014091B9015091C2
S1131E50BA010E94AE1C88234CF4C092B701D09200
S1131E60B801E092B901F092BA016DC06091AB0182
S1131E707091AC01635D7F4F882777FD8095982F23
S1131E800E94501D6B017C012091B7013091B80173
S1131E904091B9015091BA010E945E1E18160CF0CF
S1131EA052C0C092B701D092B801E092B901F09249
S1131EB0BA0149C02A94232809F045C06091AD01B4
S1131EC07091AE0167537109882777FD8095982F2B
S1131ED00E94501D6B017C012091B7013091B80123
S1131EE04091B9015091BA010E94AE1C88234CF470
S1131EF0C092B701D092B801E092B901F092BA0150
S1131F0022C06091AB017091AC016F5B7F4F882759
S1131F1077FD8095982F0E94501D6B017C012091C4
S1131F20B7013091B8014091B9015091BA010E94B2
S1131F305E1E181644F4C092B701D092B801E09224
S1131F40B901F092BA016091B7017091B801809122
S1131F50B9019091BA010E94221DCB010E94970100
S1131F600E94E801809106028F93809105028F936D
S1131F7060919F017091A0018091A1019091A201B3
S1131F800E941D1D7F936F9360919B0170919C0132
S1131F9080919D0190919E010E941D1D7F936F93DE
S1131FA0E7EFF0E0FF93EF930E946A0261E089811A
S1131FB00E94630220E030E048EC52E4BE85AF8525
S1131FC06B2F7A2F812F902F0E94691E0E941D1D56
S1131FD07F936F936091E3017091E4018091E50137
S1131FE09091E6010E941D1D7F936F936091E7011C
S1131FF07091E8018091E9019091EA010E941D1D10
S11320007F936F9387EF90E09F938F930E946A0270
S113201080915E0190915F010FB6F894DEBF0FBE10
S1132020CDBF009709F045C0C0909F01D090A0019A
S1132030E090A101F090A20120E030E040E751E4FB
S1132040C701B6010E945E1E18160CF07AC086B352
S1132050823008F476C086B3813408F47EC071C03F
S113206060919B0170919C0180919D0190919E01D2
S11320700E941D1D862F972F99231CF491958195FD
S1132080910989970CF453CC80916A0190916B016A
S1132090019709F04CCC8091600090916100059605
S11320A0909361008093600010926B0110926A011A
S11320B03ECC019709F03BCCC0909F01D090A00189
S11320C0E090A101F090A20120E030E040E751E46B
S11320D0C701B6010E945E1E18160CF080C086B3BC
S11320E0823008F47CC086B3813408F457C077C0CA
S11320F060919B0170919C0180919D0190919E0142
S11321000E941D1D862F972F99231CF4919581956C
S1132110910989970CF40BCC80916A0190916B0121
S1132120019709F004CC80916000909161000596BC
S1132130909361008093600010926B0110926A0189
S1132140F6CB20E030E048EC51E4C701B6010E9430
S1132150AE1C88230CF484CFEACB81E090E090930A
S113216081008093800084E090E090936D018093DF
S11321706C0110926300109262008DE290E09093E3
S1132180990180939801109265001092640083E293
S113219090E090938700809386002DC081E090E0CA
S11321A0909381008093800084E090E090936D018F
S11321B080936C0110926300109262008DE290E0B3
S11321C09093990180939801109265001092640095
S11321D087E390E090938700809386000CC020E012
S11321E030E048EC51E4C701B6010E94AE1C8823DC
S11321F00CF47ECF9CCB2F960FB6F894DEBF0FBEA7
S1132200CDBFDF91CF911F910F91FF90EF90DF90A1
S1132210CF90BF90AF909F908F907F906F905F9082
S11322204F903F902F90089580915E0190915F01AF
S11322308130910509F082C06091130270911402FB
S1132240882777FD8095982F0E94501D20918C003F
S113225030918D0040918E0050918F000E94691E34
S11322600E941D1D8EE591E0861B970B8A3421E0A8
S113227092073CF08AE491E09093D0018093CF01DF
S113228008958A3F91053CF48EEB90E09093D00141
S11322908093CF010895843021E092073CF48DECC3
S11322A090E09093D0018093CF0108958E3021E087
S11322B092073CF487ED90E09093D0018093CF0196
S11322C00895883121E092073CF486EE90E09093E3
S11322D0D0018093CF010895823221E092073CF42B
S11322E083E191E09093D0018093CF0108958C32E3
S11322F021E092073CF48DE191E09093D00180932A
S1132300CF010895863321E092073CF48CE291E0FA
S11323109093D0018093CF010895803491403CF490
S113232086E391E09093D0018093CF01089580E4F7
S113233091E09093D0018093CF010895892B09F007
S113234080C06091130270911402882777FD8095F4
S1132350982F0E94501D20918C0030918D00409147
S11323608E0050918F000E94691E0E941D1D8AE4F8
S113237091E0861B970B803421E092073CF080E4C7
S113238091E09093D0018093CF010895803F91050F
S11323903CF484EB90E09093D0018093CF010895B6
S11323A08A3F91053CF483EC90E09093D0018093B4
S11323B0CF010895843021E092073CF48DEC90E045
S11323C09093D0018093CF0108958E3021E092073D
S11323D03CF48CED90E09093D0018093CF0108956C
S11323E0883121E092073CF48FEF90E09093D00184
S11323F08093CF010895823221E092073CF483E177
S113240091E09093D0018093CF0108958C3221E024
S113241092073CF482E291E09093D0018093CF0143
S11324200895863391403CF48CE291E09093D0017E
S11324308093CF01089586E391E09093D001809337
S1132440CF0108958091640090916500019709F08F
S1132450C7C080919A01803309F4A8C008F58E3072
S113246009F4A4C078F4863009F4A0C020F48230C2
S113247009F0B6C09BC0883009F498C08C3009F0CC
S1132480AFC094C0883109F491C020F4803109F0C0
S1132490A7C08CC08F3111F1803209F0A1C086C071
S11324A0803709F483C070F48C3309F47FC020F4BE
S11324B0883309F095C07AC08F3381F0803609F0F3
S11324C08FC074C08C3F51F030F48F3739F0883F9F
S11324D009F086C003C08E3F08F482C08091A90130
S11324E09091AA01892B09F05AC08091BF01909163
S11324F0C001019709F053C080916200909163007C
S1132500019709F04CC081E090E09093AA01809378
S1132510A901109281001092800080915E01909137
S11325205F010097A9F46091AB017091AC01685D03
S11325307F4F882777FD8095982F0E94501D6093C8
S1132540B7017093B8018093B9019093BA0116C092
S11325500197A1F46091AD017091AE0168527109C7
S1132560882777FD8095982F0E94501D6093B701AE
S11325707093B8018093B9019093BA016091B70147
S11325807091B8018091B9019091BA010E94221D05
S1132590CB010E949701109263001092620081E0C7
S11325A090E090935D0180935C0108958091A9016E
S11325B09091AA010197A1F48091BF019091C0016B
S11325C0019771F483E090E0909381008093800000
S11325D01092AA011092A901109265001092640051
S11325E008958F929F92AF92BF92CF92DF92EF9213
S11325F0FF92CF93DF93C091D501D091D601BE0154
S1132600882777FD8095982F0E94501D6B017C01CF
S11326106091D1017091D201882777FD8095982F20
S11326200E94501D4B015C01209194003091950053
S11326304091960050919700C701B6010E94691E0F
S11326409B01AC01C501B4010E94E81B0E941D1D41
S11326506F3171053CF08EE190E09093D20180934C
S1132660D1010FC0623E8FEF78072CF07093D20136
S11326706093D10106C082EE9FEF9093D2018093C4
S1132680D1018091D3019091D401BE01681B790BD3
S1132690882777FD8095982F0E94501D862E972EAF
S11326A0A82EB92EDD230CF05BC0C0908800D0901A
S11326B08900E0908A00F0908B00662777276C1BD6
S11326C07D0B882777FD8095982F0E94501DA701C8
S11326D096010E94CC1EC0909800D0909900E09082
S11326E09A00F0909B00F7FAF094F7F8F094262FF4
S11326F0372F482F592FC701B6010E94691E6B015D
S11327007C016091D1017091D201882777FD809579
S1132710982F0E94501D9B01AC01C701B6010E9475
S1132720E81B6B017C012091900030919100409155
S1132730920050919300682D792D8A2D9B2D0E9433
S1132740691E9B01AC01C701B6010E94E81B60939E
S1132750C1017093C2018093C3019093C40146C028
S1132760209188003091890040918A0050918B001B
S1132770C701B6010E94CC1E2091980030919900A7
S113278040919A0050919B000E94691E6B017C014C
S11327906091D1017091D201882777FD8095982F9F
S11327A00E94501D9B01AC01C701B6010E94E81BA9
S11327B06B017C0120919000309191004091920036
S11327C050919300682D792D8A2D9B2D0E94691EAE
S11327D09B01AC01C701B6010E94E81B6093C101D3
S11327E07093C2018093C3019093C401D093D40128
S11327F0C093D3015091C1014091C2013091C301F2
S11328002091C401652F742F832F922FDF91CF91D4
S1132810FF90EF90DF90CF90BF90AF909F908F90FC
S11328200895CF92DF92EF92FF92CF93DF9380913E
S11328308000909181008130910509F0ABC08091B6
S11328409801909199019C012A503109273431054E
S113285008F082C02091860030918700A901481BAE
S1132860590B5093D6014093D5010E94F1126B018C
S11328707C016093D7017093D8018093D901909320
S1132880DA016091820070918300882777FD80953A
S1132890982F0E94501D9B01AC01C701B6010E94F4
S11328A0E81B462F572F682F792F4093B701509379
S11328B0B8016093B9017093BA016091AB01709152
S11328C0AC01882777FD8095982F0E94501D6B01DD
S11328D07C012091B7013091B8014091B901509128
S11328E0BA010E945E1E18164CF4C092B701D09231
S11328F0B801E092B901F092BA0120C06091AD0133
S11329007091AE01882777FD8095982F0E94501D05
S11329106B017C012091B7013091B8014091B9015C
S11329205091BA010E94AE1C882344F4C092B701AE
S1132930D092B801E092B901F092BA016091B70166
S11329407091B8018091B9019091BA010E94221D41
S1132950CB010E94970120C28091B3019091B401F0
S1132960A091B501B091B6018093B7019093B801DD
S1132970A093B901B093BA016091B7017091B80105
S11329808091B9019091BA010E94221DCB010E944D
S1132990970102C28430910509F0AEC0809198017C
S11329A0909199010A978734910508F087C00E9495
S11329B06809809186009091870020919801309158
S11329C09901821B930B9093D6018093D5010E94A9
S11329D0F1126B017C016093D7017093D80180934D
S11329E0D9019093DA0160915B0270915C028827AF
S11329F077FD8095982F0E94501D9B01AC01C70163
S1132A00B6010E94E81B462F572F682F792F409359
S1132A10B7015093B8016093B9017093BA01609102
S1132A20AB017091AC01882777FD8095982F0E94A7
S1132A30501D6B017C012091B7013091B801409188
S1132A40B9015091BA010E945E1E18164CF4C0924E
S1132A50B701D092B801E092B901F092BA0120C056
S1132A606091AD017091AE01882777FD8095982F14
S1132A700E94501D6B017C012091B7013091B80177
S1132A804091B9015091BA010E94AE1C882344F4CC
S1132A90C092B701D092B801E092B901F092BA01A4
S1132AA06091B7017091B8018091B9019091BA0118
S1132AB00E94221DCB010E9497016EC18091B30137
S1132AC09091B401A091B501B091B6018093B70182
S1132AD09093B801A093B901B093BA016091B70182
S1132AE07091B8018091B9019091BA010E94221DA0
S1132AF0CB010E94970150C1039709F04DC1809109
S1132B009801909199019C012A503109273431058B
S1132B1008F0ABC02091860030918700A901481BC2
S1132B20590B5093D6014093D5010E94F1126B01C9
S1132B307C016093D7017093D8018093D90190935D
S1132B40DA0180915E0190915F010097F9F4609140
S1132B5082007091830069517109882777FD8095FF
S1132B60982F0E94501D9B01AC01C701B6010E9421
S1132B70E81B462F572F682F792F4093B7015093A6
S1132B80B8016093B9017093BA0120C00197F1F4C0
S1132B906091820070918300675E7F4F882777FD84
S1132BA08095982F0E94501D9B01AC01C701B6016E
S1132BB00E94E81B462F572F682F792F4093B701A7
S1132BC05093B8016093B9017093BA016091AB015D
S1132BD07091AC01882777FD8095982F0E94501D35
S1132BE06B017C012091B7013091B8014091B9018A
S1132BF05091BA010E945E1E18164CF4C092B7019F
S1132C00D092B801E092B901F092BA0120C060916B
S1132C10AD017091AE01882777FD8095982F0E94B1
S1132C20501D6B017C012091B7013091B801409196
S1132C30B9015091BA010E94AE1C882344F4C09299
S1132C40B701D092B801E092B901F092BA01609153
S1132C50B7017091B8018091B9019091BA010E94B5
S1132C60221DCB010E9497011DC08091B301909158
S1132C70B401A091B501B091B6018093B7019093CE
S1132C80B801A093B901B093BA016091B7017091F2
S1132C90B8018091B9019091BA010E94221DCB0123
S1132CA00E94970180915E0190915F0181309105AE
S1132CB091F5C0918200D0918300C090B701D0906B
S1132CC0B801E090B901F090BA01BE01882777FD00
S1132CD08095982F0E94501DA70196010E94AE1C5A
S1132CE018160CF459C0C090B701D090B801E09008
S1132CF0B901F090BA01BE01675E7F4F882777FD66
S1132D008095982F0E94501DA70196010E945E1E77
S1132D108823ACF541C0892B09F03EC0C0918200E4
S1132D20D0918300C090B701D090B801E090B90170
S1132D30F090BA01BE0169517109882777FD809529
S1132D40982F0E94501DA70196010E94AE1C1816D0
S1132D501CF1C090B701D090B801E090B901F09097
S1132D60BA01BE01882777FD8095982F0E94501DD7
S1132D70A70196010E945E1E882344F40DC081E0E1
S1132D8090E0909381008093800006C081E090E001
S1132D909093810080938000DF91CF91FF90EF901A
S1132DA0DF90CF9008952F923F924F925F926F924F
S1132DB07F928F929F92AF92BF92CF92DF92EF92C7
S1132DC0FF920F931F93CF93DF93809172019091A1
S1132DD07301019709F075C120911D0230911E0203
S1132DE08091CF019091D001281739070CF469C163
S1132DF08091A7019091A801892B09F483C161C135
S1132E000E94B9060E941D1D9B01709306026093E7
S1132E100502D093A801C093A70180915E0190910F
S1132E205F01009759F480917C0190917D01281BEA
S1132E30390B30937F0120937E010CC0019751F42C
S1132E4080917C0190917D01281B390B30937F0187
S1132E5020937E018090820090908300B4018827A3
S1132E6077FD8095982F0E94501D2B013C016091A5
S1132E707E0170917F01882777FD8095982F0E94AD
S1132E80501D2DEC3CEC4CE45FE30E94691E9B0159
S1132E90AC01C301B2010E94E81B0E941D1D8827DA
S1132EA077FD8095982F0E94501D6093B701709311
S1132EB0B8018093B9019093BA01B401645C7F4F67
S1132EC0882777FD8095982F0E94501D2B013C0187
S1132ED02091B7013091B8014091B9015091BA01E4
S1132EE00E94AE1C88234CF44092B7015092B80162
S1132EF06092B9017092BA011FC0B4016C53710998
S1132F00882777FD8095982F0E94501D2B013C0146
S1132F102091B7013091B8014091B9015091BA01A3
S1132F200E945E1E181644F44092B7015092B801F4
S1132F306092B9017092BA016091B7017091B801C1
S1132F408091B9019091BA010E94221DCB010E9487
S1132F50970180911D0290911E028E3794400CF4CB
S1132F6066C08091A7019091A801029709F05FC003
S1132F7005C18130910571F581E490E0909387005B
S1132F808093860080911D0290911E029093DC0133
S1132F908093DB018091BB019091BC019093AE01C1
S1132FA08093AD019C012A5531093093AC012093E3
S1132FB0AB01909383008093820010921E021092C2
S1132FC01D0210921C0210921B02109385000093A4
S1132FD084002DC0009769F6D0928700C0928600C5
S1132FE08091BB019091BC019C01265A3F4F3093C4
S1132FF0AE012093AD019093AC018093AB0190930B
S113300083008093820080911D0290911E02909310
S1133010DC018093DB0110921E0210921D021092BB
S11330201C0210921B02109385000093840080916F
S113303011029091120202970CF45CC00E94E80104
S113304080911D0290911E0220917F012F93209167
S11330507E012F93209106022F93209105022F9336
S11330609F938F9383E291E09F938F930E946A02D0
S113307061E080E00E9463028091DE018F93809181
S1133080DD018F938091E0018F938091DF018F9315
S11330908091E2018F938091E1018F9387EF90E01B
S11330A09F938F930E946A0210921202109211024F
S11330B08DB79EB740960FB6F8949EBF0FBE8DBFD6
S11330C019C0C2E0D0E001E010E00F2EFDE2AF2E07
S11330D0B12CF02D0F2EF6E1EF2EF1E0FF2EF02DA6
S11330E00F2EF3E02F2E312CF02D0F2EF9E1CF2EE1
S11330F0D12CF02D8091700190917101892B09F0F0
S11331007FCE83C080911302909114029093DE01CC
S11331108093DD018091CF019091D0019093E201E1
S11331208093E10110928100109280008091A701A8
S11331309091A80101969093A8018093A70181E042
S113314090E090937101809370011092730110923A
S113315072010E94B9060E941D1D709306026093BD
S1133160050280911D0290911E029093E0018093CC
S1133170DF011092100210920F02A3CF109381006E
S1133180009380000E94E801B0929901A0929801F6
S113319010926700109266001092730110927201EF
S11331A010927101109270011092650010926400E7
S11331B06091820070918300882777FD8095982F15
S11331C00E94501D6093B7017093B8018093B901B8
S11331D09093BA016093B3017093B4018093B501E5
S11331E09093B60110936F0100936E01FF92EF92DA
S11331F00E946A023092A8012092A70180915E0188
S113320090915F010F900F90B4CEDF91CF911F91F9
S11332100F91FF90EF90DF90CF90BF90AF909F9071
S11332208F907F906F905F904F903F902F90089574
S11332300E949F070E94B3078091820090918300AF
S11332400E9497010E94E80180E391E09F938F938D
S11332500E946A0261E080E00E94630280916D0135
S11332608F9380916C018F9380916B008F938091E9
S11332706A008F93809106028F93809105028F9349
S113328080915F018F9380915E018F938CE391E035
S11332909F938F930E946A028DB79EB70C960FB6C8
S11332A0F8949EBF0FBE8DBF20911D0230911E0267
S11332B080911B0290911C0228173907A9F30F2E45
S11332C0FCE68F2EF0E09F2EF02D0F2EF0E82F2E2F
S11332D0F1E03F2EF02DAA24A394B12C0E9498096A
S11332E00E94250A0E942F0C80916E0190916F011B
S11332F0019781F480911D0290911E028F359140B7
S11333000CF0A2C180911D0290911E028C3291405A
S11333100CF4BAC180916C0190916D01049741F451
S113332080911D0290911E02843F91400CF0C3C114
S11333300E9414110E94D3161092940110929501C8
S1133340109296011092970110929001109291019F
S1133350109292011092930110929A0174018101CA
S1133360C0E0D0E086B390E00C2E02C0959587951E
S11333700A94E2F780FF10C0F801B182A082C5016F
S11333800C2E02C0880F991F0A94E2F790919A01BB
S1133390892B80939A0103C0F80111821082F701EE
S11333A0819191917F01F801C190D1908F018C9D01
S11333B0B0018D9D700D9C9D700D1124882777FDA3
S11333C08095982F0E94501D9B01AC01609194013F
S11333D07091950180919601909197010E94E81B4C
S11333E06093940170939501809396019093970153
S11333F040909001509091016090920170909301DF
S1133400B601882777FD8095982F0E94501DA3014F
S113341092010E94E81BD72EF82FE92F562F472F31
S1133420862F9D2DAF2FBE2F8093900190939101F5
S1133430A0939201B09393012196C830D10509F06D
S113344091CF252F342F4F2F5E2F609194017091CF
S1133450950180919601909197010E94B51C0E945C
S11334601D1D70939901609398010E9422120E947D
S1133470111420E030E44CE156E46091980070911E
S1133480990080919A0090919B000E94691E0E946D
S11334901D1D7093CC016093CB0120E030E44CE11E
S11334A056E46091940070919500809196009091FB
S11334B097000E94691E0E941D1D7093CA016093AB
S11334C0C901609190007091910080919200909157
S11334D093000E941D1D7093C8016093C70120E0F2
S11334E030E040E251E460918C0070918D00809155
S11334F08E0090918F000E94691E0E941D1D709382
S1133500C6016093C50120E030E048EC52E46091CC
S113351088007091890080918A0090918B000E94AC
S1133520691E0E941D1D7093CE016093CD01809190
S1133530110290911202181619060CF06CC00E9428
S1133540E80180917D018F9380917C018F9380911C
S113355004028F93809103028F938091C0018F9313
S11335608091BF018F9380915F018F9380915E0161
S11335708F938EE491E09F938F930E946A0261E09F
S113358080E00E9463028091DC018F938091DB01D3
S11335908F938091DE018F938091DD018F938091D1
S11335A0E0018F938091DF018F938091E2018F93EB
S11335B08091E1018F9320E030E048EC52E4609187
S11335C066017091670180916801909169010E9480
S11335D0691E0E941D1D7F936F9381EF90E09F935E
S11335E08F930E946A0280911D0290911E029F9304
S11335F08F938EEE90E09F938F930E946A021092B5
S11336001202109211028DB79EB74A960FB6F89423
S11336109EBF0FBE8DBF8091B7019091B801A0915C
S1133620B901B091BA018093B3019093B401A0930E
S1133630B501B093B6018091BF019091C001909300
S1133640BE018093BD014ACE10926F0110926E01AB
S1133650EDE2F0E0F0938700E09386008091BB01F7
S11336609091BC0190938300809382009C012A5521
S113367031093093AC012093AB01865A9F4F90934C
S1133680AE018093AD0146CE20911D0230911E0201
S11336904CEE4203C001439F900D11248059984E73
S11336A06CE271E00E946820635D7F4F7093870035
S11336B0609386002FCE8DE290E0909387008093F4
S11336C08600E5E0F0E0F0936D01E0936C0130CE0C
S11336D0CF93DF93C0918200D0918300D093BC013B
S11336E0C093BB01BE01882777FD8095982F0E9467
S11336F0501D6093B7017093B8018093B901909302
S1133700BA016093B3017093B4018093B5019093AF
S1133710B6016093AF017093B0018093B1019093AF
S1133720B201CE01865A9F4F9093AE018093AD01B2
S1133730CA55D109D093AC01C093AB01DF91CF91AD
S1133740089511B888E480B9089594EA96BF06B63E
S113375007FEFDCF91B1987F983011F0903179F444
S113376083B984E886BF06B607FEFDCF91B1987F82
S1133770983139F081E0903429F480E0089581E0B3
S1133780089580E008950E94A51B089584E986BFEA
S113379006B604FCFDCF089583B984E886BF06B657
S11337A007FEFDCF91B1987F81E0983209F480E063
S11337B0089584EC86BF06B607FEFDCF83B1089555
S11337C084E886BF06B607FEFDCF83B1089550583E
S11337D0BB27AA270ED027C2F0D130F0F5D120F0B4
S11337E031F49F3F11F41EF4C0C10EF4E095E7FBE1
S11337F0B6C1E92F3AD280F3BA1762077307840778
S1133800950718F071F49EF552C20EF4E0950B2E54
S1133810BA2FA02D0B01B90190010C01CA01A0011E
S11338201124FF27591B99F0593F50F4503E68F179
S11338301A16F040A22F232F342F4427585FF3CFBA
S1133840469537952795A795F0405395C9F77EF48B
S11338501F16BA0B620B730B840BBAF09150A1F0D4
S1133860FF0FBB1F661F771F881FC2F70EC0BA0F5A
S1133870621F731F841F48F4879577956795B795E2
S1133880F7959E3F08F0B3CF9395880F08F09927DA
S1133890EE0F97958795089590D158F080E891E0C0
S11338A009F49EEF91D128F040E851E059F45EEF1D
S11338B009C05BC1FCC1E92FE078D7D168F3092EB8
S11338C0052AC1F3261737074807590738F00E2E83
S11338D007F8E02569F0E025E0640AC0EF6307F823
S11338E0009407FADB01B9019D01DC01CA01AD01B5
S11338F0EF934AD098D10AD05F91552331F02BED44
S11339003FE049E450FD49EC63CF0895DF93DD27A0
S1133910B92FBF7740E85FE31616170648075B0721
S113392010F4D92FCFD19F938F937F936F93C8D2E5
S1133930E4E5F0E01DD177D12F913F914F915F9154
S1133940D4D1DD2349F09058A2EA2AED3FE049ECB6
S11339505FE3D0785D274DDFDF9165C1DCD008F4EB
S113396081E0089539D1E3956FC10CD05CC12CD1AD
S113397040F023D130F021F45F3F19F0F0C0511131
S113398097C1F3C072D198F39923C9F35523B1F3C6
S1133990951B550BBB27AA2762177307840738F0BA
S11339A09F5F5F4F220F331F441FAA1FA9F333D019
S11339B00E2E3AF0E0E830D091505040E695001CCD
S11339C0CAF729D0FE2F27D0660F771F881FBB1F89
S11339D0261737074807AB07B0E809F0BB0B802D63
S11339E0BF01FF2793585F4F2AF09E3F510568F0AF
S11339F0B6C05EC15F3FECF3983EDCF386957795E5
S1133A006795B795F7959F5FC9F7880F911D9695B0
S1133A10879597F90895E1E0660F771F881FBB1F0C
S1133A20621773078407BA0720F0621B730B840BB9
S1133A30BA0BEE1F88F7E095089504D06894B1118D
S1133A4037C108951AD188F09F5790F0B92F99275C
S1133A50B751A0F0D1F0660F771F881F991F1AF095
S1133A60BA95C9F712C0B13081F021D1B1E00895FF
S1133A701EC1672F782F8827B85F39F0B93FCCF380
S1133A80869577956795B395D9F73EF4909580958B
S1133A90709561957F4F8F4F9F4F0895E89409C0AB
S1133AA097FB3EF490958095709561957F4F8F4F6D
S1133AB09F4F9923A9F0F92F96E9BB279395F69583
S1133AC0879577956795B795F111F8CFFAF4BB0F01
S1133AD011F460FF1BC06F5F7F4F8F4F9F4F16C065
S1133AE0882311F096E911C0772321F09EE8872FEF
S1133AF0762F05C0662371F096E8862F70E060E0AB
S1133B002AF09A95660F771F881FDAF7880F969523
S1133B10879597F90895990F0008550FAA0BE0E8C7
S1133B20FEEF16161706E807F907C0F0121613067B
S1133B30E407F50798F0621B730B840B950B39F4BB
S1133B400A2661F0232B242B252B21F408950A2621
S1133B5009F4A140A6958FEF811D811D089597F961
S1133B609F6780E870E060E008959FEF80EC08951F
S1133B70DF93CF931F930F93FF92EF92DF927B011A
S1133B808C01689405C0DA2EEF01AFD0FE01E894F1
S1133B90A5912591359145915591AEF3EF0129DE1B
S1133BA0FE019701A801DA9479F7DF90EF90FF9076
S1133BB00F911F91CF91DF91089500240A94161656
S1133BC0170618060906089500240A941216130607
S1133BD0140605060895C9CF50D0E8F3E894E0E050
S1133BE0BB279F57F0F02AED3FE049EC06C0EE0FEB
S1133BF0BB0F661F771F881F28F0B23A620773074E
S1133C00840728F0B25A620B730B840BE3959A95E0
S1133C1072F7803830F49A95BB0F661F771F881FA0
S1133C20D2F7904883C1092E0394000C11F4882321
S1133C3052F0BB0F40F4BF2B11F460FF04C06F5F60
S1133C407F4F8F4F9F4F0895EF93E0FF06C0A2EA86
S1133C502AED3FE049EC5FEBCCDDE5DF0F90039408
S1133C6001FC9058E1E8F0E074C157FD9058440F0E
S1133C70551F59F05F3F71F04795880F97FB991FC7
S1133C8061F09F3F79F08795089512161306140684
S1133C90551FF2CF4695F1DF08C016161706180611
S1133CA0991FF1CF86957105610508940895E894EC
S1133CB0BB2766277727CB0197F908952CDF08F4F3
S1133CC08FEF08959B01AC0160E070E080E89FE312
S1133CD04CCE0BD0A8CF71DF28F076DF18F09523F7
S1133CE009F03DCF42CF1124E3CFBFDFA0F3959F6E
S1133CF0D1F3950F50E0551F629FF001729FBB27CF
S1133D00F00DB11D639FAA27F00DB11DAA1F649F7A
S1133D106627B00DA11D661F829F2227B00DA11D2D
S1133D20621F739FB00DA11D621F839FA00D611DB3
S1133D30221F749F3327A00D611D231F849F600DD4
S1133D40211D822F762F6A2F11249F5750408AF00D
S1133D50E1F088234AF0EE0FFF1FBB1F661F771F99
S1133D60881F91505040A9F79E3F510570F0F7CE3F
S1133D709FCF5F3FECF3983EDCF38695779567958C
S1133D80B795F795E7959F5FC1F7FE2B880F911DB7
S1133D909695879597F90895FA01EE0FFF1F3096CF
S1133DA02105310599F16115710561F48038BFE38E
S1133DB09B0749F168949038810561F08038BFEF22
S1133DC09B0741F0992342F5FF3FE10531052105A9
S1133DD011F1E8940894E795D901AA2329F4AB2FAB
S1133DE0BE2FF85FD0F310C0FF5F70F4A695E0F724
S1133DF0F73950F019F0FF3A38F49F779F930CD0BD
S1133E000F9007FC905808953EF0AFCE60E070E04C
S1133E1080E89FE308954FE79F775F934F933F9325
S1133E202F93E3D02F913F914F915F9152DF50C078
S1133E309F93D2DE0F9007FCEE5F06CF11F40EF4D1
S1133E4094CE72C01ADFD0F39923D9F3CEF39F57DF
S1133E50550B87FF77D00024A0E640EA90018058F4
S1133E605695979528F4805C660F771F881F20F07D
S1133E7026173707480730F4621B730B840B20297D
S1133E8031294A2BA69517940794202531254A27D2
S1133E9058F7660F771F881F20F026173707480743
S1133EA030F4620B730B840B200D311D411DA09562
S1133EB081F7B901842F9158880F969587950895B5
S1133EC09B01AC0106CF19F40EF049CEF0CE4DCED5
S1133ED0D4DEC8F39638C0F707F80F92E8942BE3C2
S1133EE03AEA48EB5FE703DF0F920F920F924DB768
S1133EF05EB70F92BAD0EFE9F0E03ADE4F915F91EE
S1133F00EF91FF91E595EE1FFF1F49F0FE57E06822
S1133F104427EE0F441FFA95E1F74195550B2CD039
S1133F200F9007FECFCE08959F3F31F0915020F4BB
S1133F30879577956795B795880F911D9695879581
S1133F4097F9089591505040660F771F881FD2F754
S1133F5008959F938F937F936F93FF93EF939B01A8
S1133F60AC01B7DEEF91FF9103DE2F913F914F91AA
S1133F705F91AFCEF4CDD8CF80DEE8F39923D9F3A7
S1133F80940F511DBBF39150504094F059F0882385
S1133F9032F0660F771F881F91505040C1F79E3F43
S1133FA0510544F7880F911D9695879597F90895C3
S1133FB05F3FACF0983E9CF0BB278695779567955C
S1133FC0B79508F4B1609395C1F7BB0F58F711F496
S1133FD060FFE8CF6F5F7F4F8F4F9F4FE3CF68CE77
S1133FE00EF0A2CFC2CD6894BACD47DEC8F39923B0
S1133FF0D1F3C6F3DF93CF931F930F93FF92C92F8F
S1134000DD2788232AF02197660F771F881FDAF7A8
S113401020E030E040E85FEB9FE3883920F0803E09
S113402030F021968F77D4DBE7ECF0E003C0D0DBEF
S1134030E4EFF0E09DDD8B01BE01EC01FB2E6F5738
S113404071097595771F880B990B2ADD28E132E7F2
S113405041E35FE34ADEAF2D9801AE01FF900F917B
S11340601F91CF91DF91C5DBDECDFA01DC01AA0FF0
S1134070BB1F9B01AC01BF5728F4222733274427D9
S113408050781FC0B75188F4AB2F0024469537955C
S11340902795011CA395D2F3002069F0220F331F4A
S11340A0441FB395DAF30DD092CB61307105A0E8CB
S11340B08A07B94630F49B01AC0166277727882725
S11340C09078309621F0208331834283538308957E
S11340D097FB072E16F4009407D077FD09D00E94B1
S11340E07C2007FC05D03EF4909581959F4F089560
S11340F0709561957F4F0895AA1BBB1B51E107C0C2
S1134100AA1FBB1FA617B70710F0A61BB70B881F63
S1134110991F5A95A9F780959095BC01CD010895F2
S1134120EE0FFF1F0590F491E02D0994FB019F0110
S1134130E8944230C4F04532B4F44A3029F497FB91
S11341401EF4909581959F4F642F77270E947C20C1
S1134150805D8A330CF0895D8193CB010097A1F7D0
S113416016F45DE251931082C9010C94B720DC016E
S1134170FC01672F71917723E1F7329704C07C919A
S11341806D9370836291AE17BF07C8F30895F894D6
S1054190FFCF5B
S11341921E0001000100010001004500500046001C
S11341A23C00320028001E0014000A000000BCC1BA
S11341B201007A0001002D00000020400000A04010
S11341C20000F0416F12833A0AD7A33BFFFF1600A7
S11341D2FEFF201E5354415254494E47205452412B
S11341E2434B3D256400433D2564204E3D25640038
S11341F24166746572206E696E6574793D2564004A
S1134202783D256420793D25642025640043616C52
S11342126962726174696E670046202564202564B0
S1134222002564202564202564202564202564005B
S1134232432564204125642044256400453D2564CA
S1134242204F3D2564006F757473696465206C6F3B
S11342526F7000453D256420432564204425640095
S11342625354415254494E472E2E2E005452414328
S11342724B3D256420256420256420256400543D9B
S10F4282256420256420256420256400A8
S9030000FC
