:100000000C948C000C94AD000C94AD000C94AD00DD
:100010000C94AD000C94AD000C94AD000C94AD00AC
:100020000C94AD000C94AD000C94AD000C94061330
:100030000C94AD000C94AD000C94AD000C94AD008C
:100040000C94AD000C94AD000C94AD000C94AD007C
:100050000C94AD000C94AD000C94AD000C941114F4
:100060000C94AD000C9444180C94AD000C94AD00AD
:100070000C94AD000C94AD000C94AD000C94AD004C
:100080000C94AD000C94AD000C94AD000C94AD003C
:100090000C9454180C94AD000C94AD000C94AD006D
:1000A0000C94AD000C94AD000C942A130C94AD008C
:1000B0000C94AD000C94AD000C94AD000C94E014C5
:1000C0000C94AD000C94AD000C94AD000C9464182D
:1000D0000C94AD000C94AD000C94AD000C94AD00EC
:1000E0000C94AD006E047604E607B104E607EC0458
:1000F000E60727054705670572057D05880596050E
:10010000A405C405E40504062406E6072D067106C9
:10011000B506050755079E0711241FBECFEFD1E294
:10012000DEBFCDBF00E00CBF12E0A0E0B2E0ECEA21
:10013000F5E300E00BBF02C007900D92A632B107B5
:10014000D9F712E0A6E2B2E001C01D92AA3DB107C4
:10015000E1F70E94A6120C94D41A0C940000FC0142
:10016000138212821582148211821082EAE7F0E073
:10017000808180688083ACE7B0E08C9180648C9350
:10018000808187608083808180648083808186FD18
:10019000FDCFEAE7F0E080818F7780830895DC016E
:1001A000683030F0EBE7F0E080818860808305C044
:1001B000EBE7F0E08081877F8083ECE7F0E08081EF
:1001C000962F9770887F892B8083EAE7F0E0808103
:1001D000806C8083808186FDFDCF80917800909136
:1001E00079001F969C938E931E976830D1F4481720
:1001F000590738F481E090E013969C938E93129700
:1002000009C0421B530B8417950720F413961C92C8
:100210001E92129712968C91129713969C91139797
:1002200008956623B1F44817590730F481E090E04F
:1002300011969C938E9308C0421B530B841795070D
:1002400018F411961C921E928C9111969C91119704
:1002500008956D30D1F44817590738F481E090E0E3
:1002600015969C938E93149709C0421B530B8417C9
:10027000950720F415961C921E92149714968C9153
:10028000149715969C91159708958FE19EE4019718
:10029000F1F700C000000895FC01683030F0ABE7D2
:1002A000B0E08C9188608C9305C0ABE7B0E08C9196
:1002B000877F8C93ACE7B0E08C916770887F682B68
:1002C0006C93AAE7B0E08C91806C8C938C9186FD46
:1002D000FDCF809178009091790097878687089567
:1002E000FC0184E893E09183808384E398E0938326
:1002F0008283269A0895FC0171836083538342832D
:1003000008958F929F92AF92BF92CF92DF92EF9219
:10031000FF920F931F93CF93DF93EC016A017B0150
:1003200008811981B80180E090E00E9476194B01A4
:100330005C016A817B81601B710B80E090E00E9410
:100340007619A70196010E942C1A20E030E048ECB3
:1003500052E40E94DD189B01AC01C501B4010E946A
:1003600075180E944A19660F771F70938B0060936F
:100370008A00DF91CF911F910F91FF90EF90DF9056
:10038000CF90BF90AF909F908F900895CF93DF93C1
:10039000EC0140E050E068EC72E40E9481018FEFD4
:1003A00097EAA1E681509040A040E1F700C000002C
:1003B000CE0140E050E0BA010E9481018FEF93E24C
:1003C000A4EF81509040A040E1F700C00000DF9111
:1003D000CF9108958CEA92E00E946D130E944A1911
:1003E000DC01CB0190934502809344020895CF92A3
:1003F000DF92EF92FF928BEA92E00E9448146B0129
:100400007C0160934D0270934E0280934F02909353
:100410005002609148027091490280914A02909185
:100420004B0220E030E0A9010E94D918882371F422
:10043000C701B60120E030E0A9010E94D918882345
:1004400029F480914C028F5F80934C0280914C0282
:10045000833040F120910C0280910D0290910E02A8
:10046000821B9109029790930E0280930D028C35A6
:10047000910534F48BE590E090930E0280930D0289
:1004800060910D0270910E02882777FD8095982F5C
:100490000E947819AB01BC0183EC92E00E94C11666
:1004A00010924C0280914D0290914E02A0914F0209
:1004B000B09150028093480290934902A0934A025F
:1004C000B0934B028FE39CE90197F1F700C0000065
:1004D000FF90EF90DF90CF900895E7E0F1E080810A
:1004E0008F738083E8E0F1E08081806C8083E8E6B0
:1004F000F0E0808184608083EDE6F0E08081806CB4
:100500008083089560910D0270910E02882777FD17
:100510008095982F0E947819AB01BC0183EC92E082
:100520000E94C116E2E0F1E08081877F80838081B4
:100530008860808308950E949117883571F189350C
:1005400028F4813441F08735B1F716C08935B1F10F
:100550008A3589F745C080910902882361F383E2D7
:100560000E947F171092470281E08093460210920A
:10057000090280933A020895809108028823D9F2F3
:1005800083E20E947F1781E080933D0280932702DF
:1005900080934602109247020895809107028823B3
:1005A00051F283E20E947F1781E080933C028093A6
:1005B0002702809346021092470208958091060216
:1005C000882309F4B8CF83E20E947F1781E08093EB
:1005D0003B028093270280934602109247020895BF
:1005E00080910502882309F4A6CF83E20E947F1739
:1005F0001092050281E0809347021092460208950E
:10060000CF92DF92EF92FF920F931F9380910B0294
:10061000882309F4F8C080918302882309F4F3C089
:1006200010924502109244028CEA92E00E946D13EF
:100630000E944A196115710589F070934102609317
:1006400040028091440290914502680F791F709397
:1006500045026093440201E010E002C000E010E0B7
:100660008CEA92E00E946D130E944A19611571058F
:1006700081F0709341026093400280914402909116
:100680004502680F791F70934502609344020F5F23
:100690001F4F0115110559F08091440290914502B8
:1006A000B8010E948F1A70934502609344028091B2
:1006B000440290914502009709F48EC020915202A5
:1006C000222309F448C020912402222351F02091D2
:1006D0007C0230917D02309382022093810210923D
:1006E00024022091810230918202821B930B1AF422
:1006F000909581959F4F803191053CF081E09091DC
:100700008002911180E08093800280918002882392
:1007100049F4809113029091140290937F02809388
:100720007E0210C0813071F4809113029091140206
:1007300020917C0230917D02820F931F90937F0263
:1007400080937E0280917E0290917F02909382023C
:100750008093810208C080911302909114029093BB
:100760007F0280937E02609144027091450280E096
:1007700090E00E9476196B017C0160917E0270917D
:100780007F0280E090E00E9476198B019C018BE84B
:1007900092E0B701A6010E94B2150E944519DC0142
:1007A000CB019C019093430280934202992374F4FD
:1007B000309521953F4F30934302209342028BECBA
:1007C00092E062E041E00E940C1506C08BEC92E0E2
:1007D00062E040E00E940C1580910A02882359F0E3
:1007E00040914202509143028BEC92E062E070E053
:1007F0000E94291508C08BEC92E062E070E040E0B6
:1008000050E00E942915109283021F910F91FF90D2
:10081000EF90DF90CF900895CF92DF92EF92FF920A
:100820000F931F9340912002509121026091220268
:10083000709123020091740210917502209176024A
:1008400030917702C0907802D0907902E0907A02DD
:10085000F0907B028BE892E00E94981581E08093F3
:100860000A0286E290E090931402809313020E94A1
:100870000003809144029091450286978230910551
:10088000B0F78BEC92E062E070E040E050E00E9454
:10089000291510920B021F910F91FF90EF90DF909E
:1008A000CF900895AF92BF92CF92DF92EF92FF92D6
:1008B0000F931F93CF93DF930E94911790E081567F
:1008C00090408A31910508F081C38E589F4FFC01FA
:1008D000EE0FFF1F0590F491E02D199481E08093B5
:1008E00046021092470280933A0270C3CBECD2E0EA
:1008F000CE0161E041E00E940C15CE0161E070E0A4
:1009000040ED57E00E9429158FEF93ECA9E081504C
:100910009040A040E1F700C00000CE0161E070E02F
:1009200040E050E00E942915CE0161E040E00E94C5
:100930000C15CE0161E070E040ED57E00E942915F2
:100940008FEF93ECA9E081509040A040E1F700C008
:100950000000CE0161E070E040E050E00E94291507
:1009600035C3CBECD2E0CE0160E041E00E940C1533
:10097000CE0160E070E040ED57E00E9429158FEF56
:1009800093ECA9E081509040A040E1F700C0000046
:10099000CE0160E070E040E050E00E942915CE01F9
:1009A00060E041E00E940C15CE0160E070E040ED97
:1009B00057E00E9429158FEF93ECA9E081509040F9
:1009C000A040E1F700C00000CE0160E070E040E030
:1009D00050E00E942915FAC2CBECD2E0CE0162E0D1
:1009E00041E00E940C15CE0162E070E040ED57E05E
:1009F0000E9429158FEF93ECA9E081509040A04010
:100A0000E1F700C00000CE0162E070E040E050E09D
:100A10000E942915CE0162E040E00E940C15CE0133
:100A200062E070E040ED57E00E9429158FEF93ECF3
:100A3000A9E081509040A040E1F700C00000CE0145
:100A400062E070E040E050E00E942915BFC2609172
:100A50005A0270915B026B5F7F4F70935B026093F1
:100A60005A02882777FD8095982F0E947819AB014C
:100A7000BC018FEB92E00E94810180915A0290911B
:100A80005B020E94EC1783E20E947F179FC2609175
:100A90005A0270915B026550704070935B026093E4
:100AA0005A02882777FD8095982F0E947819AB010C
:100AB000BC018FEB92E00E94810180915A029091DB
:100AC0005B020E94EC1783E20E947F177FC28DEACF
:100AD00092E068E00E944C010E94EC1783E20E94C1
:100AE0007F1774C28DEA92E060E00E944C010E9480
:100AF000EC1783E20E947F1769C28DEA92E06DE0F5
:100B00000E944C010E94EC1783E20E947F175EC294
:100B10008BEA92E00E9448140E944519DC01CB0147
:100B20000E94EC1783E20E947F1750C28CEA92E089
:100B30000E946D130E944519DC01CB010E94EC1745
:100B400083E20E947F1742C260910D0270910E02F3
:100B50006B5F7F4F70930E0260930D02882777FDC5
:100B60008095982F0E947819AB01BC0183EC92E02C
:100B70000E94C11680910D0290910E020E94EC1706
:100B800083E20E947F1722C260910D0270910E02D3
:100B90006550704070930E0260930D02882777FDB8
:100BA0008095982F0E947819AB01BC0183EC92E0EC
:100BB0000E94C11680910D0290910E020E94EC17C6
:100BC00083E20E947F1702C260910F0270911002AF
:100BD0006B5F7F4F7093100260930F02882777FD41
:100BE0008095982F0E947819AB01BC0183EC92E0AC
:100BF0000E94061780910F02909110020E94EC173C
:100C000083E20E947F17E2C160910F02709110028F
:100C1000655070407093100260930F02882777FD33
:100C20008095982F0E947819AB01BC0183EC92E06B
:100C30000E94061780910F02909110020E94EC17FB
:100C400083E20E947F17C2C180910A0290E00E9455
:100C5000EC1783E20E947F17B9C160912002709166
:100C60002102809122029091230220E030E040E2B4
:100C700051E40E947518E62FA72ED92F982F4E2FDA
:100C80005A2D692F7D2F40932002509321026093AB
:100C90002202709323020091740210917502209138
:100CA000760230917702C0907802D0907902E0907D
:100CB0007A02F0907B028BE892E00E949815609196
:100CC00020027091210280912202909123020E94C1
:100CD0004519DC01CB010E94EC1783E20E947F17CB
:100CE00075C1609120027091210280912202909141
:100CF000230220E030E040E251E40E947418E62F25
:100D0000A72ED92F982F4E2F5A2D692F7D2F409324
:100D100020025093210260932202709323020091DB
:100D20007402109175022091760230917702C09082
:100D30007802D0907902E0907A02F0907B028BE802
:100D400092E00E949815609120027091210280919A
:100D50002202909123020E944519DC01CB010E94DE
:100D6000EC1783E20E947F1731C160917402709189
:100D7000750280917602909177022DEC3CEC4CEC60
:100D80005DE30E947518B62FA72F382F292F982FB3
:100D90004B2F5A2F692F722F409374025093750274
:100DA0006093760270937702409120025091210265
:100DB0006091220270912302C0907802D090790253
:100DC000E0907A02F0907B028BE892E0E22F0B2F0A
:100DD0001A2F232F3E2F0E94981560917402709154
:100DE0007502809176029091770220E030E040E237
:100DF00051E40E942C1A0E944519DC01CB010E948B
:100E0000EC1783E20E947F17E1C060917402709139
:100E1000750280917602909177022DEC3CEC4CECBF
:100E20005DE30E947418B62FA72F382F292F982F13
:100E30004B2F5A2F692F722F4093740250937502D3
:100E400060937602709377024091200250912102C4
:100E50006091220270912302C0907802D0907902B2
:100E6000E0907A02F0907B028BE892E0E22F0B2F69
:100E70001A2F232F3E2F0E949815609174027091B3
:100E80007502809176029091770220E030E040E296
:100E900051E40E942C1A0E944519DC01CB010E94EA
:100EA000EC1783E20E947F1791C0609178027091E5
:100EB000790280917A0290917B0220E030E040E25A
:100EC00051E40E947518B62FA72FF82FE92F982FFD
:100ED0004B2F5A2F692F7E2F40937802509379021F
:100EE00060937A0270937B0240912002509121021C
:100EF0006091220270912302009174021091750298
:100F000020917602309177028BE892E0CB2EDA2E98
:100F1000EF2EFE2E0E949815609178027091790252
:100F200080917A0290917B020E944519DC01CB01ED
:100F30000E94EC1783E20E947F1748C060917802FC
:100F40007091790280917A0290917B0220E030E0EA
:100F500040EA50E40E947518B62FA72FF82FE92F0A
:100F6000982F4B2F5A2F692F7E2F40937802509342
:100F7000790260937A0270937B0240912002509133
:100F8000210260912202709123020091740210915B
:100F9000750220917602309177028BE892E0CB2E99
:100FA000DA2EEF2EFE2E0E94981560917802709135
:100FB000790280917A0290917B020E944519DC01AE
:100FC000CB010E94EC1783E20E947F17DF91CF9143
:100FD0001F910F91FF90EF90DF90CF90BF90AF9057
:100FE0000895CF92DF92EF92FF920F931F93CF93CA
:100FF0000E949117883409F4EFC0893490F4843446
:1010000009F453C0853430F4823409F1833409F093
:101010007CC12DC0863409F497C0873408F0AEC077
:101020006FC08B3409F430C18C3438F4893409F43E
:10103000FDC08A3409F069C10DC18D3409F451C174
:101040008D3408F43FC18E3409F05FC157C18091DF
:101050003A02882309F459C183E20E947F1781E094
:1010600080938A0210923A02809339024EC1809195
:101070003902882309F449C183E20E947F17109244
:1010800011028AE090E090935B0280935A0283E120
:1010900090E090937D0280937C0281E080935202E5
:1010A000109239028093380230C18091380288232F
:1010B00009F42BC183E20E947F17C1E0C0930B02A9
:1010C0008BE892E040E050E068EC73E400E010E070
:1010D0009801680179010E94981587E190E090934A
:1010E000140280931302C0930A0284E190E090936B
:1010F0007D0280937C0210923802C093370205C1B2
:1011000080913702882309F400C183E20E947F178F
:101110008EE190E090931402809313028CE390E0B0
:1011200090935B0280935A0284E190E090937D0259
:1011300080937C0281E08093720280932702109258
:10114000370280933602E1C080913602882309F489
:10115000DCC083E20E947F1786E490E090935B02FC
:1011600080935A0288E290E090937D0280937C0203
:101170001092360281E080933502C7C0809135021B
:10118000882309F4C2C083E20E947F1786E490E0BE
:1011900090935B0280935A0280EA90E090930E0253
:1011A00080930D0283EC92E040E050E060E273E453
:1011B0000E94C1168EE190E0909314028093130276
:1011C00088E290E090937D0280937C021092350239
:1011D00081E08093340299C080913402882309F41D
:1011E00094C083E20E947F17C1E0C093510287EA56
:1011F00090E090930E0280930D0283EC92E040E029
:1012000050E067E273E40E94C11689E190E0909398
:101210001402809313028CE390E090937D028093FC
:101220007C0210923402C09333026FC0809133026B
:10123000882309F46AC083E20E947F178CE390E060
:1012400090937D0280937C021092330281E0809320
:1012500032025BC080913202882309F456C083E2D7
:101260000E947F17109251028CE390E090937D02D0
:1012700080937C0281E08093890210925202109246
:1012800032028093310241C0809131028823E9F11A
:1012900083E20E947F17C1E0C0930B028BE892E0CB
:1012A00040E050E06AE773E400E010E09801680174
:1012B00079010E949815C093880210923102C09360
:1012C000300223C0809130028823F9F083E20E942B
:1012D0007F1781E0809387021092300280932F0263
:1012E00014C080912F02882381F083E20E947F172F
:1012F00081E08093860210922F0207C080912E0217
:10130000882319F083E20E947F17CF911F910F91DC
:10131000FF90EF90DF90CF900895AC0160915A025A
:1013200070915B02681779071CF4E1E0F0E002C0FD
:10133000EFEFFFEF80917302882331F120911F02BC
:1013400030E0CA01861B970B1AF4909581959F4F48
:101350002817390784F4E29FC001E39F900DF29FA4
:10136000900D1124860F971F90935B0280935A0271
:101370001092730209C050935B0240935A0210927C
:10138000730281E08093590260915A0270915B026E
:10139000882777FD8095982F0E947819AB01BC01B2
:1013A0008FEB92E00E948101089580915902882379
:1013B00051F480911D0290911E020E948D0980912E
:1013C0005902882381F060915A0270915B0288274C
:1013D00077FD8095982F0E947819AB01BC018FEBA7
:1013E00092E00E94810108952F923F924F925F9266
:1013F0006F927F928F929F92AF92BF92CF92DF9225
:10140000EF92FF920F931F93CF93DF9300D000D002
:10141000CDB7DEB786E490E090935B0280935A02EA
:101420008FEB92E040E050E06CE872E40E948101B2
:1014300011E010935D028BE590E090930E02809393
:101440000D0283E690E0909354028093530283EC64
:1014500092E040E050E066EB72E40E94C1168BEC33
:1014600092E062E070E040E050E00E9429151092A6
:101470000A0210928402109385021092A500109225
:10148000A400809189028823F1F477C18F2D9E2DCD
:10149000AD2DBC2DBC01CD0120E030E04CE553E486
:1014A0000E94281A18162CF525E530E030935B02CF
:1014B00020935A028FEB92E040E050E06AEA72E437
:1014C0000E94810116C000E010E0FF24EE24DD241C
:1014D000CC245524992493940F2EFBEA2F2EF2E06E
:1014E0003F2EF02D0F2EF3EC6F2EF2E07F2EF02D1D
:1014F00058018F2D9E2DAD2DBC2DBC01CD0120E0BE
:1015000030E046E153E40E94281A181674F48F2D37
:101510009E2DAD2DBC2DBC01CD0120E030E04CE571
:1015200053E40E94D918882324F0809184028233E6
:1015300078F040E550E050935B0240935A028FEB05
:1015400092E040E050E060EA72E40E948101592C90
:101550008091550290915602A0915702B091580285
:1015600089839A83AB83BC83C1010E9448146D8335
:101570007E83882E492E472F862F942FA82DB42D99
:101580008093550290935602A0935702B09358024D
:101590008F2D9E2DAD2DBC2DBC01CD01FD81EE8189
:1015A0000F2F1E2F282D342DA90198010E94D91824
:1015B000882324F4F02EE12ED82CC42C5D814E819A
:1015C000852F942FA82DB42DBC01CD0120E030E053
:1015D000A9010E94D918882371F469817A818B81CD
:1015E0009C8120E030E0A9010E94D918882319F4D9
:1015F0000894A11CB11C93E0A916B10408F480C0A2
:101600008F2D9E2DAD2DBC2DBC01CD0120E030E0F5
:1016100044E353E40E94281A18162CF080918402A7
:10162000823308F462C08F2D9E2DAD2DBC2DBC01E0
:10163000CD01FD81EE810F2F1E2F282D342DA90104
:1016400098010E94281A88230CF452C080915C02F1
:10165000882331F050C080915C02882309F04EC08D
:1016600080910D0290910E02019690930E0280934C
:101670000D0220915302309154022817390724F4A7
:1016800030930E0220930D0260910D0270910E02B4
:10169000882777FD8095982F0E947819AB01BC01AF
:1016A000C3010E94C116C1010E94481460935502F3
:1016B0007093560280935702909358022FEF39EFA0
:1016C00040E0215030404040E1F700C000000F2DC5
:1016D0001E2D2D2D3C2DA90198010E94D9181816F8
:1016E0000CF0B9CFAA24BB240BC0AA24BB2408C089
:1016F000AA24BB2405C0AA24BB2402C0AA24BB245C
:101700008F2D9E2DAD2DBC2DBC01CD0120E030E0F4
:1017100044EB53E40E94281A181684F48F2D9E2D52
:10172000AD2DBC2DBC01CD0120E030E047ED53E4F0
:101730000E94D918882314F4552021F480915C026A
:10174000882369F083E70E947F17909259021092D4
:101750005C021092890210928502109284028FEF2F
:1017600099EFA0E081509040A040E1F700C0000058
:1017700080918902882309F089CE26960FB6F894C5
:10178000DEBF0FBECDBFDF91CF911F910F91FF90B4
:10179000EF90DF90CF90BF90AF909F908F907F9011
:1017A0006F905F904F903F902F900895AF92CF929F
:1017B000DF92EF92FF920F931F93CF93C82F970161
:1017C00080912702882351F04093610210926202B7
:1017D00060935F0210926002109227028DEA92E0FD
:1017E0006DE0A8010E94CF00909364028093630291
:1017F00021E0A216B1F420916102309162028217B9
:10180000930779F020915F02309160022F5F3F4F84
:101810003093600220935F02909362028093610292
:1018200018C022E0A216A9F4209161023091620250
:101830008217930771F020915F023091600221506E
:1018400030403093600220935F0290936202809355
:101850006102DD2480915F0290916002C816D90672
:1018600079F00BEC12E0C80162E04C2F0E940C15DD
:10187000C80162E070E048E057E00E94291508C006
:101880008BEC92E062E070E040E050E00E942915AD
:101890008091630280932D028091610280932C02DB
:1018A000CF911F910F91FF90EF90DF90CF90AF906D
:1018B0000895AF92CF92DF92EF92FF920F931F9312
:1018C000CF93C82F970180912702882351F040932E
:1018D0006802109269026093660210926702109289
:1018E00027028DEA92E068E0A8010E94CF00909361
:1018F0006B0280936A0221E0A216B1F42091680283
:10190000309169028217930779F020916602309135
:1019100067022F5F3F4F30936702209366029093D8
:1019200069028093680218C022E0A216A9F42091EF
:101930006802309169028217930771F02091660264
:101940003091670221503040309367022093660245
:101950009093690280936802DD24809166029091E1
:101960006702C816D90679F00BEC12E0C80160E0F6
:101970004C2F0E940C15C80160E070E040ED57E06C
:101980000E94291508C08BEC92E060E070E040E016
:1019900050E00E94291580916A0280932B02809169
:1019A000680280932A02CF911F910F91FF90EF90D0
:1019B000DF90CF90AF900895AF92CF92EF92FF92C9
:1019C0000F931F9381E06091660240912B0220915A
:1019D0002A020AE812E00F2EF2E3EF2EFF24F02D88
:1019E000CC246894C1F8AA246894A1F80E94590CE8
:1019F00080916602909167028230910551F48BECE0
:101A000092E060E070E040E050E00E942915109202
:101A100065021F910F91FF90EF90CF90AF900895C6
:101A2000AF92CF92EF92FF920F931F9380E060915D
:101A3000660240912B0220912A020AE812E00F2E42
:101A4000F2E3EF2EFF24F02DCC246894C2F8AA24F0
:101A5000A3940E94590C8091660290916702843091
:101A6000910551F48BEC92E060E070E040E050E0D2
:101A70000E94291510923F021F910F91FF90EF9045
:101A8000CF90AF900895AF92CF92DF92EF92FF92F6
:101A90000F931F93CF93C82F97018091270288231C
:101AA00051F040936E0210926F0260936C0210929C
:101AB0006D02109227028DEA92E060E0A8010E9478
:101AC000CF00909371028093700221E0A216B1F4CE
:101AD00020916E0230916F028217930779F0209166
:101AE0006C0230916D022F5F3F4F30936D02209357
:101AF0006C0290936F0280936E0218C022E0A216CF
:101B0000A9F420916E0230916F028217930771F051
:101B100020916C0230916D022150304030936D0263
:101B200020936C0290936F0280936E02DD2480916B
:101B3000660290916702C816D90679F00BEC12E0A4
:101B4000C80161E04C2F0E940C15C80161E070E0F3
:101B500048E057E00E94291508C08BEC92E061E054
:101B600070E040E050E00E9429158091700280935F
:101B7000290280916E0280932802CF911F910F91CC
:101B8000FF90EF90DF90CF90AF900895AF92CF92FB
:101B9000EF92FF920F931F9381E060916C0240914E
:101BA0002902209128020AE812E00F2EFBE4EF2E12
:101BB000FF24F02D0F2EF3E0CF2EF02DAA24A394B6
:101BC0000E94430D80916C0290916D0283309105CB
:101BD00069F48BEC92E061E070E040E050E00E943C
:101BE000291581E0809326028093270280912602A6
:101BF000882369F180E060915F0240912D0220917D
:101C00002C020AE812E00F2EFBE4EF2EFF24F02D49
:101C1000CC246894C1F8AA24A3940E94D60B809186
:101C20005F02909160028230910589F48BEC92E022
:101C300062E070E040E050E00E94291581E080936E
:101C40002F028093270280933F0210923C021F9143
:101C50000F91FF90EF90CF90AF900895AF92CF92F9
:101C6000EF92FF920F931F9380912602882349F5EC
:101C700081E060916C0240912902209128020AE8DB
:101C800012E00F2EFBE4EF2EFF24F02DCC246894FD
:101C9000C2F8AA24A3940E94430D80916C029091F3
:101CA0006D028430910569F48BEC92E061E070E0A4
:101CB00040E050E00E94291581E080932602809345
:101CC000270280912602813049F580E060915F0211
:101CD00040912D0220912C020AE812E00F2EFBE425
:101CE000EF2EFF24F02DCC246894C2F8AA24A394EC
:101CF0000E94D60B80915F02909160028430910522
:101D000069F48BEC92E062E070E040E050E00E9409
:101D1000291510923D0281E0809331021F910F91AD
:101D2000FF90EF90CF90AF9008952F923F924F92F7
:101D30005F926F927F928F929F92AF92CF92EF922B
:101D4000FF920F931F93CF93DF9381E0809327023D
:101D50000F2EFCE68F2EF2E09F2EF02DC0E0D2E099
:101D60000F2EF2E06F2EF2E07F2EF02D222433248E
:101D7000689423F80F2EF3E14F2E5524F02D57C011
:101D80000E94000381E0F4016081409129022091CA
:101D900028020AE812E00F2EFBE4EF2EFF24F02DBC
:101DA0000F2EF7E0CF2EF02DAA24A3940E94430D0E
:101DB00080916C0290916D020E94EC17CE010E94FE
:101DC000351880917002909171020E94EC17CE013B
:101DD0000E94351880916E0290916F020E94EC175C
:101DE000C3010E94351880916C0290916D0285307C
:101DF000910541F481E080930B02509214024092CD
:101E0000130215C08730910591F430926D02209233
:101E10006C028BEC92E061E070E040E050E00E94E8
:101E2000291510928A025092140240921302809156
:101E30008A02882309F0A4CFDF91CF911F910F91DF
:101E4000FF90EF90CF90AF909F908F907F906F908A
:101E50005F904F903F902F9008954F925F926F92B6
:101E60007F928F929F92AF92CF92EF92FF920F93B9
:101E70001F93CF93DF938BEC92E062E070E040E041
:101E800050E00E94291510920A0281E080932702F7
:101E90000F2EFCE68F2EF2E09F2EF02DCBECD2E041
:101EA0000F2EF2E06F2EF1E07F2EF02D0F2EF3ECCF
:101EB0004F2EF2E05F2EF02D92C080E0D4016C91A5
:101EC0004091290220912A020AE812E00F2EFBE439
:101ED000EF2EFF24F02DCC24AA246894A1F80E94B0
:101EE000430D80916C0290916D02009709F077C0CC
:101EF00010928602CE0161E070E040E050E00E9466
:101F00002915F3018081877F80838BE490E0909393
:101F1000100280930F02C20140E050E066E972E4D3
:101F20000E9406178FEF99E6A8E181509040A040EB
:101F3000E1F700C00000CE0160E041E00E940C1516
:101F4000CE0160E070E040ED57E00E9429158FEF70
:101F500099E6A8E181509040A040E1F700C0000060
:101F6000CE0160E070E040E050E00E942915CE0113
:101F700061E041E00E940C15CE0161E070E040EDAF
:101F800057E00E9429158FEF91EFABE2815090400E
:101F9000A040E1F700C00000CE0161E070E040E049
:101FA00050E00E942915CE0162E040E00E940C152D
:101FB000CE0162E070E048E057E00E9429158FEF03
:101FC00095EAAEE081509040A040E1F700C00000EB
:101FD000CE0162E070E040E050E00E94291580915F
:101FE0008602882309F069CFDF91CF911F910F916D
:101FF000FF90EF90CF90AF909F908F907F906F90D9
:102000005F904F9008954F925F926F927F928F9260
:102010009F92AF92CF92DF92EF92FF920F931F9316
:10202000CF93DF93C2E0D1E08881877F888383E309
:1020300090E09093100280930F0283EC92E040E0D6
:1020400050E06CE472E40E94061789E50E947F1755
:102050008FEF95EAAEE081509040A040E1F700C0DC
:10206000000088818860888381E080930A028093E1
:10207000270280918702882309F482C0D0E0C1E062
:102080000F2EFCE68F2EF2E09F2EF02D0F2EFBEC94
:102090004F2EF2E05F2EF02DDD24D3940F2EFFE5BE
:1020A0006F2EF2E07F2EF02DCC2329F180E0D301BA
:1020B0006C9140912D0220912C020AE812E00F2E23
:1020C000FBE4EF2EFF24F02D0F2EF6E0CF2EF02DA7
:1020D000AD2C0E94D60B80915F02909160028630F9
:1020E000910521F080910A02882329F4D0922702D9
:1020F000DD2DC0E002C0DD23E1F180E0F40160816C
:1021000040912902209128020AE812E00F2EFBE4F8
:10211000EF2EFF24F02D0F2EF3E0CF2EF02DAA246A
:102120006894A1F80E94430D80916C0290916D0219
:1021300083309105F1F4C20160E070E040E050E0CE
:102140000E942915C20161E070E040E050E00E9469
:102150002915C20162E070E040E050E00E942915BC
:1021600010920B021092870210920A02D0923E0245
:10217000D0E00E94EA0180918702882309F094CF81
:10218000DF91CF911F910F91FF90EF90DF90CF9053
:10219000AF909F908F907F906F905F904F90089539
:1021A0002F923F924F925F926F927F928F929F9267
:1021B000AF92CF92EF92FF920F931F93CF938CEA3F
:1021C00092E00E946D1320E030E048E452E40E9467
:1021D000281A18160CF0C2C01092600210925F020A
:1021E00010922D0210922C02109267021092660239
:1021F00010922B0210922A0280EB90E090930E0234
:1022000080930D0283EC92E040E050E060E373E4E1
:102210000E94C11610925B0210925A028FEB92E05C
:1022200040E050E0BA010E94810181E080931102F8
:102230001092590280930A0280932702C0E00F2E69
:10224000FFE58F2EF2E09F2EF02D0F2EFCE66F2E75
:10225000F2E07F2EF02D0F2EFBEC4F2EF2E05F2EE2
:10226000F02D0F2EF2E02F2EF1E03F2EF02D71C059
:1022700081E0F401608140912D0220912C020AE856
:1022800012E00F2EFBE4EF2EFF24F02DCC246894F7
:10229000C2F8AA24A3940E94D60B80915F02909169
:1022A00060028430910561F4C20162E070E040E0B8
:1022B00050E00E94291581E080932702C1E003C00D
:1022C000CC2309F446C080E0F301608140912902EB
:1022D000209128020AE812E00F2EFBE4EF2EFF24E3
:1022E000F02DCC246894C2F8AA246894A1F80E9426
:1022F000430D80916C0290916D028430910549F5F7
:10230000C20161E070E040E050E00E942915C20186
:1023100062E070E040E050E00E94291510928802CF
:1023200080E590E09093100280930F02F10180818C
:10233000877F808383EC92E040E050E060EA72E4C3
:102340000E94061781E080933F028093270210923B
:102350000B0280918802882309F08ACFCF911F91C8
:102360000F91FF90EF90CF90AF909F908F907F90C4
:102370006F905F904F903F902F900895AF92CF92C3
:10238000EF92FF920F931F9380E060916C02409157
:102390002902209128020AE812E00F2EFBE4EF2E1A
:1023A000FF24F02D0F2EF5E0CF2EF02DAA246894F7
:1023B000A1F80E94430D80916C0290916D028530CE
:1023C000910551F48BEC92E061E070E040E050E068
:1023D0000E942915109272021F910F91FF90EF90A9
:1023E000CF90AF900895E1EAF0E080818D60808326
:1023F000E2E7F0E0808182608083C99A84E891E01E
:102400009093A9008093A8001092A5001092A400B8
:102410000895AF92BF92CF92DF92EF92FF920F9307
:102420001F93CF93DF93E1E0F1E0808188608083A8
:10243000E2E0F1E08081877F80830E9457170E944D
:1024400063178CEA92E00E945C138BEA92E00E9490
:1024500036140E946D020E94F3118DEA92E00E94F0
:10246000AF008BEC92E00E94EF140F2EF3ECAF2E36
:10247000F2E0BF2EF02DC5010E9495168FEB92E081
:102480000E947001CBE8D2E0CE010E947B1580E073
:1024900090E0A1EEB4EC80939F029093A002A093F1
:1024A000A102B093A20280E090E0A1EEB4E4809398
:1024B0009B0290939C02A0939D02B0939E02409138
:1024C000200250912102609122027091230200911A
:1024D0007402109175022091760230917702C090BB
:1024E0007802D0907902E0907A02F0907B02CE01DF
:1024F0000E94981580E090E0DC018093A702909301
:10250000A802A093A902B093AA0260911B02709145
:102510001C024091190250911A02C5010E94B51681
:1025200060911702709118024091150250911602A5
:10253000C5010E94BB16DF91CF911F910F91FF90B3
:10254000EF90DF90CF90BF90AF9008950E94091256
:1025500078940E9482028FEB92E00E94C6010E9452
:102560000C040E949B0280914602882309F446C015
:102570000E94000380918A02882311F00E94950E28
:1025800080918902882311F00E94F40980918802C9
:10259000882311F00E94D01080918702882311F0C7
:1025A0000E94031080918602882311F00E942D0F53
:1025B00080911102882311F40E94D50980913F0275
:1025C000882311F00E94100D80917202882311F06F
:1025D0000E94BE1180913E02882311F00E94EA0100
:1025E00080913D02882311F00E942E0E80913C02C2
:1025F000882311F00E94C60D0E94F10780914702C6
:10260000882309F4B0CF0E945204ADCF1F920F92DD
:102610000FB60F9211248F938091060186FF0FC091
:102620008091060188235CF481E080930A020CC04B
:1026300080910601882344F010920A0205C080911F
:10264000060186FFF9CFF4CF8F910F900FBE0F9048
:102650001F9018951F920F920FB60F9211248F930F
:1026600081E08093830280937302809185028823A6
:1026700029F0809184028F5F80938402809185028B
:10268000882369F080915D02882349F0809184025B
:10269000803F28F081E080935C02109284028F9149
:1026A0000F900FBE0F901F901895EEE6F0E080811E
:1026B0008160808316BC08950E945513E1E0F1E02B
:1026C000808180618083A2E0B1E08C918F7E8C93C9
:1026D00080818F7B808316BC089516BC85B584608D
:1026E00085BDE0E0F1E0808186FF89C08091D00265
:1026F0008823C9F384C01092D00285B58B7F85BD35
:1027000016BC70E060E090E080E070C016BC85B55B
:10271000846085BDE0E0F1E0808186FD76C0809137
:10272000D0028823C9F371C01092D00285B58B7F87
:1027300085BD16BC70E060E090E080E057C016BC3C
:1027400085B5846085BDE0E0F1E0808186FF63C0EF
:102750008091D0028823C9F35EC01092D00285B563
:102760008B7F85BD16BC70E060E090E080E03EC0ED
:1027700066B570E080E090E00E94761920E030E0DD
:1027800040E851E40E942C1A20E030E040E251E49D
:102790000E94DD1820E030E040EF51E40E94741800
:1027A0006093CC027093CD028093CE029093CF02BF
:1027B00025B52B7F25BD16BC20E030E0A9010E9485
:1027C000D91888235CF480E090E0DC018093CC028F
:1027D0009093CD02A093CE02B093CF027091CC0221
:1027E0006091CD029091CE028091CF02392F282F97
:1027F000872F962FA32FB22FBC01CD010895809172
:10280000D002882309F482CF76CF8091D00288232A
:1028100009F495CF89CF8091D002882309F4A8CFFD
:102820009CCF1F920F920FB60F9211248F9381E0CD
:102830008093D0028F910F900FBE0F901F9018952C
:10284000E1E2F1E0808188608083E3E7F0E080816D
:1028500082608083D19A80E197E2909329018093EE
:102860002801109225011092240108950E9420143D
:10287000E1E0F1E0808180628083E2E0F1E080814C
:10288000806280832498109225011092240108957B
:10289000CF93DF93E2E0F1E080818F7D808385E359
:1028A0008A95F1F700001092250110922401E1E2CF
:1028B000F1E08081826080831C9976C08091D5028E
:1028C0008823D1F371C01092D502E1E2F1E080815A
:1028D0008D7F80831092250110922401E2E0F1E0C7
:1028E00080818062808370E060E090E080E051C091
:1028F0001092250110922401E1E2F1E080818260D2
:1029000080831C9B57C08091D5028823D1F352C08D
:102910001092D502E1E2F1E080818D7F80831092F8
:10292000250110922401E2E0F1E080818062808341
:1029300070E060E090E080E02CC0C4E2D1E068810B
:10294000798180E090E00E94761920E030E040EA52
:1029500051E40E94DD18DC01CB018093D1029093F9
:10296000D202A093D302B093D402E1E2F1E08081DD
:102970008D7F808319821882E2E0F1E0808180629D
:1029800080837091D1026091D2029091D3028091A4
:10299000D402392F282F872F962FA32FB22FBC01B7
:1029A000CD01DF91CF9108958091D502882309F45C
:1029B0009FCF89CF8091D502882309F4BECFA8CFBD
:1029C0001F920F920FB60F9211248F9381E0809384
:1029D000D5028F910F900FBE0F901F9018956D9A92
:1029E0000D9A0F9A75986B9A099A0B9A73986C9A2C
:1029F0003E9A3C9A7498E0E9F0E080818A6A80838C
:102A0000E1E9F0E080818961808380ED97E0909337
:102A10009700809396000895662339F4413019F4A5
:102A2000159A179808951598179A613041F4413016
:102A300019F4119A139808951198139A0895623011
:102A400039F4413019F4449A469808954498469AC6
:102A500008956115710529F450939D0040939C00E1
:102A600008956130710529F45093990040939800BE
:102A700008956230710521F450939B0040939A00B1
:102A800008958F929F92AF92BF92CF92DF92EF9272
:102A9000FF920F931F93CF93DF93EC014A015B01E9
:102AA00068017901688179818A819B81A5019401FE
:102AB0000E94D918882324F488829982AA82BB8232
:102AC000688179818A819B81A70196010E94281AD9
:102AD000181624F4C882D982EA82FB82DF91CF9152
:102AE0001F910F91FF90EF90DF90CF90BF90AF902C
:102AF0009F908F900895FC0140E050E0BA01408320
:102B000051836283738344835583668377834087CD
:102B10005187628773874487558766877787408F99
:102B2000518F628F738F448F558F668F778F089583
:102B3000CF92DF92EF92FF920F931F93FC0140839D
:102B40005183628373830483158326833783C0860E
:102B5000D186E286F3861F910F91FF90EF90DF9070
:102B6000CF9008954F925F926F927F928F929F9233
:102B7000AF92BF92EF92FF920F931F93CF93DF9389
:102B8000CDB7DEB728970FB6F894DEBF0FBECDBF26
:102B90007C014A015B01C901B801A50194010E94B1
:102BA0007418F62FE72F582F492F862E972EA82E10
:102BB000B92ED7011C966D917D918D919C911F9797
:102BC0000F2F1E2F252F342FA90198010E94751851
:102BD000DC01CB01F70184879587A687B787C701FA
:102BE0000C9640E050E06AEF73EC00E010E02AEF52
:102BF00033E40E944115D70158964D905D906D9039
:102C00007C905B97C501B4019F7720E030E040E401
:102C100050E40E94281A18160CF04DC0C501B401EA
:102C2000F70120813181428153810E942C1A6D83EA
:102C30007E838F839887D70114966D917D918D91B6
:102C40009C9117971C962D913D914D915C911F97EA
:102C50000E942C1A9B01AC016D817E818F81988529
:102C60000E9475186D837E838F839887C501B40198
:102C7000A30192010E947418F701208531854285D5
:102C800053850E942C1A9B01AC016D817E818F813E
:102C900098850E947518D7015C962D913D914D91B4
:102CA0005C915F970E947518DC01CB0189839A8340
:102CB000AB83BC8307C080E090E0DC0189839A830A
:102CC000AB83BC83F701448955896689778900897C
:102CD000118922893389CE0101960E944115D701BD
:102CE00058968D929D92AD92BC925B9759814A8184
:102CF0003B812C81852F942FA32FB22FBC01CD01B6
:102D000028960FB6F894DEBF0FBECDBFDF91CF91EE
:102D10001F910F91FF90EF90BF90AF909F908F9079
:102D20007F906F905F904F900895FC0120E931E013
:102D30003383228380E699E09183808337832683DF
:102D400095838483279A259AE0E8F0E080818A6A57
:102D50008083E1E8F0E080818A6180838FE39CE9F1
:102D600090938700809386000895FC0173836283AB
:102D7000518340830895FC017783668355834483A0
:102D800008958F929F92AF92BF92CF92DF92EF926F
:102D9000FF920F931F93CF93DF93EC016A017B01A6
:102DA0000A811B81B80180E090E00E9476194B01F6
:102DB0005C0168817981601B710B80E090E00E946A
:102DC0007619A70196010E942C1A20E030E044E316
:102DD00053E40E94DD189B01AC01C501B4010E94BF
:102DE00075180E944A19660F771F70938D006093C3
:102DF0008C00DF91CF911F910F91FF90EF90DF90AA
:102E0000CF90BF90AF909F908F9008958F929F9298
:102E1000AF92BF92CF92DF92EF92FF920F931F93E8
:102E2000CF93DF93EC016A017B010E811F81B80112
:102E300080E090E00E9476194B015C016C817D81FD
:102E4000601B710B80E090E00E947619A70196014B
:102E50000E942C1A20E030E044E353E40E94DD1885
:102E60009B01AC01C501B4010E9475180E944A196A
:102E7000660F771F7093890060938800DF91CF9170
:102E80001F910F91FF90EF90DF90CF90BF90AF9088
:102E90009F908F9008951092C50087E68093C4009C
:102EA00088E98093C10086E08093C2000895109263
:102EB000CD0087E68093CC0088E98093C90086E046
:102EC0008093CA0008951092D50087E68093D400BD
:102ED00088E98093D10086E08093D2000895E0ECE9
:102EE000F0E0908195FFFDCF8093C6000895E8EC57
:102EF000F0E0908195FFFDCF8093CE000895E0ED46
:102F0000F0E0908195FFFDCF8093D60008958091E9
:102F1000D8021092D80208958091D7021092D70259
:102F200008958091D6021092D60208950F931F93B0
:102F3000CF93DF93CDB7DEB764970FB6F894DEBFBB
:102F40000FBECDBFBE016F5F7F4F4AE050E00E94D1
:102F5000A31A8981882351F08E010E5F1F4F0E94B2
:102F60006F17F80181918F018823C9F764960FB616
:102F7000F894DEBF0FBECDBFDF91CF911F910F91AF
:102F800008950F931F93CF93DF93CDB7DEB7649768
:102F90000FB6F894DEBF0FBECDBFBE016F5F7F4F8F
:102FA0004AE050E00E94A31A8981882351F08E01E3
:102FB0000E5F1F4F0E947717F80181918F018823C0
:102FC000C9F764960FB6F894DEBF0FBECDBFDF9190
:102FD000CF911F910F9108950F931F93CF93DF937C
:102FE000CDB7DEB764970FB6F894DEBF0FBECDBF86
:102FF000BE016F5F7F4F4AE050E00E94A31A8981B3
:10300000882351F08E010E5F1F4F0E947F17F80139
:1030100081918F018823C9F764960FB6F894DEBFBB
:103020000FBECDBFDF91CF911F910F910895CF9328
:10303000DF93EC018881882331F021960E946F177D
:1030400089918823D9F7DF91CF910895CF93DF93AA
:10305000EC018881882331F021960E9477178991AD
:103060008823D9F7DF91CF910895CF93DF93EC01B7
:103070008881882331F021960E947F1789918823C7
:10308000D9F7DF91CF9108951F920F920FB60F924B
:1030900011248F938091C6008093D8028F910F9056
:1030A0000FBE0F901F9018951F920F920FB60F92A0
:1030B00011248F938091CE008093D7028F910F902F
:1030C0000FBE0F901F9018951F920F920FB60F9280
:1030D00011248F938091D6008093D6028F910F9008
:1030E0000FBE0F901F9018955058BB27AA270ED0DF
:1030F00075C166D130F06BD120F031F49F3F11F4EF
:103100001EF45BC10EF4E095E7FB51C1E92F77D1C6
:1031100080F3BA17620773078407950718F071F4F4
:103120009EF58FC10EF4E0950B2EBA2FA02D0B014A
:10313000B90190010C01CA01A0011124FF27591BFC
:1031400099F0593F50F4503E68F11A16F040A22F02
:10315000232F342F4427585FF3CF46953795279573
:10316000A795F0405395C9F77EF41F16BA0B620B72
:10317000730B840BBAF09150A1F0FF0FBB1F661FB9
:10318000771F881FC2F70EC0BA0F621F731F841FFC
:1031900048F4879577956795B795F7959E3F08F022
:1031A000B3CF9395880F08F09927EE0F97958795E1
:1031B0000895D9D008F481E008950CD00FC107D14B
:1031C00040F0FED030F021F45F3F19F0F0C0511113
:1031D00039C1F3C014D198F39923C9F35523B1F33E
:1031E000951B550BBB27AA2762177307840738F076
:1031F0009F5F5F4F220F331F441FAA1FA9F333D0D5
:103200000E2E3AF0E0E830D091505040E695001C88
:10321000CAF729D0FE2F27D0660F771F881FBB1F44
:10322000261737074807AB07B0E809F0BB0B802D1E
:10323000BF01FF2793585F4F2AF09E3F510568F06A
:10324000B6C000C15F3FECF3983EDCF386957795FE
:103250006795B795F7959F5FC9F7880F911D96956C
:10326000879597F90895E1E0660F771F881FBB1FC8
:10327000621773078407BA0720F0621B730B840B75
:10328000BA0BEE1F88F7E095089504D06894B11149
:10329000D9C00895BCD088F09F5790F0B92F9927D6
:1032A000B751A0F0D1F0660F771F881F991F1AF051
:1032B000BA95C9F712C0B13081F0C3D0B1E008951A
:1032C000C0C0672F782F8827B85F39F0B93FCCF39B
:1032D000869577956795B395D9F73EF49095809547
:1032E000709561957F4F8F4F9F4F0895E89409C067
:1032F00097FB3EF490958095709561957F4F8F4F29
:103300009F4F9923A9F0F92F96E9BB279395F6953E
:10331000879577956795B795F111F8CFFAF4BB0FBC
:1033200011F460FF1BC06F5F7F4F8F4F9F4F16C020
:10333000882311F096E911C0772321F09EE8872FAA
:10334000762F05C0662371F096E8862F70E060E066
:103350002AF09A95660F771F881FDAF7880F9695DF
:10336000879597F90895990F0008550FAA0BE0E883
:10337000FEEF16161706E807F907C0F01216130637
:10338000E407F50798F0621B730B840B950B39F477
:103390000A2661F0232B242B252B21F408950A26DD
:1033A00009F4A140A6958FEF811D811D089597F91D
:1033B0009F6780E870E060E008959FEF80EC0895DB
:1033C00000240A9416161706180609060895002404
:1033D0000A9412161306140605060895092E03947E
:1033E000000C11F4882352F0BB0F40F4BF2B11F4F2
:1033F00060FF04C06F5F7F4F8F4F9F4F089557FD51
:103400009058440F551F59F05F3F71F04795880F52
:1034100097FB991F61F09F3F79F0879508951216E9
:1034200013061406551FF2CF4695F1DF08C0161695
:1034300017061806991FF1CF869571056105089446
:103440000895E894BB2766277727CB0197F908955D
:103450008ADF08F48FEF08950BD0C0CFB1DF28F0DA
:10346000B6DF18F0952309F0A2CFA7CF1124EACF39
:10347000C6DFA0F3959FD1F3950F50E0551F629FD3
:10348000F001729FBB27F00DB11D639FAA27F00DBD
:10349000B11DAA1F649F6627B00DA11D661F829FE4
:1034A0002227B00DA11D621F739FB00DA11D621FC9
:1034B000839FA00D611D221F749F3327A00D611DE6
:1034C000231F849F600D211D822F762F6A2F1124C8
:1034D0009F5750408AF0E1F088234AF0EE0FFF1F1B
:1034E000BB1F661F771F881F91505040A9F79E3F52
:1034F000510570F05CCFA6CF5F3FECF3983EDCF354
:10350000869577956795B795F795E7959F5FC1F78E
:10351000FE2B880F911D9695879597F90895AA1B04
:10352000BB1B51E107C0AA1FBB1FA617B70710F0AE
:10353000A61BB70B881F991F5A95A9F780959095E0
:10354000BC01CD010895FB019F01E8944230C4F015
:103550004532B4F44A3029F497FB1EF490958195D6
:103560009F4F642F77270E948F1A805D8A330CF05B
:10357000895D8193CB010097A1F716F45DE2519329
:103580001082C9010C94C41ADC01FC01672F7191EF
:103590007723E1F7329704C07C916D937083629139
:0C35A000AE17BF07C8F30895F894FFCFE2
:1035AC0009000A0D00010101010101010AB00064CA
:1035BC000001012600C4092C01600990014600019C
:0635CC000000964301001F
:00000001FF
