:100000000C944C000C9469000C9469000C946900E9
:100010000C9469000C9469000C9469000C946900BC
:100020000C9469000C9469000C9469000C946900AC
:100030000C9469000C9469000C9443030C946900BF
:100040000C9469000C9469000C9469000C9469008C
:100050000C9469000C9469000C9469000C9469007C
:100060000C9469000C946900E4172818E717EA1744
:10007000ED17F017F317F617FF17F917FC1702180B
:10008000051808180B181A181718231820181D1807
:100090000E1811181418261811241FBECFEFD8E01F
:1000A000DEBFCDBF17E0A0E0B1E0E4E1F4E302C0C1
:1000B00005900D92AE3AB107D9F727E0AEEAB7E066
:1000C00001C01D92AF3FB207E1F70E9490170C9458
:1000D000081A0C94000095ED9A95F1F7000088231A
:1000E00014F4409A01C0409886FF02C0419A01C0B2
:1000F000419885FF02C0429A01C0429884FF02C025
:10010000439A01C04398449A449883FF02C0409A9E
:1001100001C0409882FF02C0419A01C0419881FF0E
:1001200002C0429A01C0429880FF02C0439A01C0B7
:100130004398449A44980895459881E00E946B0042
:100140008FE39FE10197F1F700C000000895CF937E
:10015000DF93EC01459A8881882331F021960E9433
:100160006B0089918111FBCFDF91CF910895459A62
:100170000E946B0008954598611104C080580E9448
:100180006B000895613021F480540E946B00089543
:10019000623021F48C560E946B0008958C520E94AC
:1001A0006B0008953D9A3C9A389A399A3A9A3B9A4C
:1001B000459844988FE59AEE0197F1F700C000004A
:1001C000439A429A41984098449A44988FE19EE419
:1001D0000197F1F700C00000449A44988FE193E042
:1001E0000197F1F700C00000449A44988FE193E032
:1001F0000197F1F700C000004398429A4198409857
:10020000449A449888E20E946B008CE00E946B0044
:100210000E949C0086E00E946B000895CF93DF93BC
:1002200000D000D000D0CDB7DEB7AB01BE016F5F0C
:100230007F4F0E94C319CE0101960E94A700269607
:100240000FB6F894DEBF0FBECDBFDF91CF910895FA
:100250004F925F926F927F92AF92BF92CF92DF9256
:10026000EF92FF920F931F93CF93DF93CDB7DEB73B
:100270008989EA88FB88813029F460E080E00E9467
:10028000BB0014C0823029F461E080E00E94BB0012
:100290000DC0833029F462E080E00E94BB0006C0FC
:1002A000843021F463E080E00E94BB006E0184E1B1
:1002B000C80ED11CF7018081882309F4BCC08532A7
:1002C00009F09FC087010F5F1F4FF70181818636BC
:1002D00009F44DC030F4823661F0843609F08EC0E6
:1002E00022C0833769F1883789F08F3609F086C0DC
:1002F00078C07601F2E0EF0EF11C62E070E0F601EA
:10030000808191810E940E0167018DC07601F2E02B
:10031000EF0EF11C60E170E0F601808191810E9496
:100320000E01670180C07601F2E0EF0EF11C6AE079
:1003300070E0F601808191810E940E01670173C017
:10034000F60182E0C80ED11C0190F081E02D808181
:10035000882309F468C07F019FEFE91AF90A0E9417
:10036000B700F70181917F018111F9CF5CC056017F
:10037000F4E0AF0EB11CF6014080518062807380C2
:10038000C301B2010E9494186B017C01882777FD9C
:100390008095982F0E94C7189B01AC01C301B20140
:1003A0000E942F1820E030E44CE156E40E945319DB
:1003B0000E949418662E772E6AE070E0C6010E94B3
:1003C0000E018EE20E94B700862D972D99231CF412
:1003D0009195819591096AE070E00E940E01650196
:1003E00022C07601F2E0EF0EF11C68E070E0F60149
:1003F000808191810E940E01670115C00E94B700A3
:1004000012C0893029F480E20E94B70087010BC036
:100410008A3031F461E080E00E94BB00870103C0B4
:100420000E94B70087017801FFEFEF1AFF0AF80179
:100430008181811144CFDF91CF911F910F91FF9066
:10044000EF90DF90CF90BF90AF907F906F905F90D4
:100450004F90089584B1836084B98AB18C608AB961
:100460008AB18F708AB985B1836085B98BB18C6F81
:100470008BB908952998289A5A9A5B9A8FE59AEE33
:100480000197F1F700C000004C9961C0199B30C082
:100490005EC0199B30C05DC0199B30C05CC0199B09
:1004A00030C05BC0189B30C068C0189B30C067C0AC
:1004B000189B30C066C0189B30C065C04A9B30C0D6
:1004C00072C04A9B30C071C04A9B30C070C04A9B0A
:1004D00030C06FC04B9B30C07CC04B9B30C07BC0DA
:1004E0004B9B30C07AC04B997AC020E130E02CC0E1
:1004F00022E030E029C023E030E026C024E030E0F4
:1005000023C02DE030E020C025E030E01DC026E013
:1005100030E01AC027E030E017C02EE030E014C011
:1005200028E030E011C029E030E00EC02AE030E0E1
:100530000BC02FE030E008C02CE030E005C021E027
:1005400030E002C02BE030E0822F932F08954D9BC6
:10055000A0CF4E9BA1CF4F9BA2CF299A8FE19EE4C3
:100560000197F1F700C0000028988FE59AEE0197F7
:10057000F1F700C000004C9B95CF4D9B96CF4E9B52
:1005800097CF4F9B98CF289A8FE19EE40197F1F780
:1005900000C000005A988FE59AEE0197F1F700C06D
:1005A00000004C9B8BCF4D9B8CCF4E9B8DCF4F9B98
:1005B0008ECF5A9A8FE19EE40197F1F700C00000B8
:1005C0005B988FE59AEE0197F1F700C000004C9B15
:1005D00081CF4D9B82CF4E9B83CF4F9B84CF5B9A25
:1005E0008FE19EE40197F1F700C000001092FE0732
:1005F0001092FD0720E030E0A7CF299828985A985C
:100600005B984C9B10C04D9B11C04E9B12C089B192
:10061000992787FD909580959095292F221F222755
:10062000221F30E008C021E030E005C021E030E0CA
:1006300002C021E030E0822F932F08950E94FD0236
:10064000019751F42091FD073091FE0721153105E6
:1006500019F0822F932F08950E943A029C019093E3
:10066000FE078093FD07F5CF84B5826084BD85B514
:10067000856085BDEEE6F0E0808182608083A99A86
:100680008AE987BD08951F920F920FB60F92112429
:100690008F939F938091B0079091B10701969093AB
:1006A000B1078093B0078091B8078F5F8093B80738
:1006B0008091AE079091AF0701969093AF0780931A
:1006C000AE078091B807883038F081E08093B60794
:1006D0008093B7071092B8079F918F910F900FBE2C
:1006E0000F901F901895E0ECF0E0908195FFFDCF02
:1006F0008093C60008951092B1071092B007E0EC05
:10070000F0E006C08091B0079091B107049730F4F3
:1007100080818823BCF78091C600089580E0089509
:10072000E0ECF0E0908195FFFDCF8093C600109241
:10073000B1071092B00716BCE0ECF0E006C0809163
:10074000B0079091B107099730F480818823BCF7F6
:100750008091C600089580E00895CF93DF931092B2
:10076000D807E0ECF0E0908195FFFDCF8093C600C4
:100770001092AF071092AE07A8EDB7E020E030E08E
:10078000E0ECF0E0C6ECD0E01092B1071092B007B8
:1007900006C08091B0079091B107099718F4808145
:1007A0008823BCF74881433229F4F901E852F84F15
:1007B000108211C08091AE079091AF07499738F031
:1007C0001092D8071092AF071092AE0704C04D9355
:1007D0002F5F3F4FD9CF88ED97E0DF91CF910895FC
:1007E0001092CE071092C4071092BA070895519A3A
:1007F000509888E18093C10086E08093C2001092F7
:10080000C50087E68093C40008958091B7078823C8
:1008100009F494C00E949C008091B207882391F152
:100820008091B407882361F081E091E09F938F93DA
:1008300081E08F930E9428010F900F900F900BC0C2
:1008400086E191E09F938F9381E08F930E9428012E
:100850000F900F900F908AE291E09F938F9382E028
:100860008F930E9428018EE391E09F938F9383E002
:100870008F930E9428010F900F900F900F900F9070
:100880000F9031C08091B507882361F083E591E036
:100890009F938F9382E08F930E9428010F900F9077
:1008A0000F900BC088E691E09F938F9382E08F9327
:1008B0000E9428010F900F900F908CE791E09F937A
:1008C0008F9381E08F930E94280181E991E09F93AB
:1008D0008F9383E08F930E9428010F900F900F90C9
:1008E0000F900F900F908091B207823061F486EAEA
:1008F00091E09F938F9384E08F930E9428010F9043
:100900000F900F9019C0843061F48BEB91E09F93AE
:100910008F9384E08F930E9428010F900F900F9087
:100920000BC08FEC91E09F938F9384E08F930E9494
:1009300028010F900F900F901092B7078091B60783
:10094000882369F080910001811114C108C01092C0
:10095000B50703C081E08093B5071092B6070E94E7
:100960001E038B30910509F4B7C040F48530910522
:1009700009F4D2C0079709F004C1E8C08F3091058F
:1009800039F08031910529F10E9709F0FAC05EC067
:1009900082E30E94730382E08093FC070E94F003CD
:1009A0008091E7079091E80701969093E80780937C
:1009B000E707FC01E751F84F2091FC0720832FEF58
:1009C00083EC99E0215080409040E1F700C00000A6
:1009D00008958091B2078230D9F406C08FE39FE179
:1009E0000197F1F700C000008AE50E94900383326E
:1009F000A9F706C08FE39FE10197F1F700C000005F
:100A000086E60E9490038332A9F7109200010895B0
:100A1000843009F0B6C006C08FE39FE10197F1F77B
:100A200000C0000088E50E9490038332A9F706C049
:100A30008FE39FE10197F1F700C0000086E60E9476
:100A400090038332A9F710920001089584EE91E09B
:100A50009F938F9381E08F930E94280184E30E94EB
:100A6000730384E30E9473038FE19EE40197F1F71F
:100A700000C0000084E70E9473039FEF21EE84E032
:100A8000915020408040E1F700C000001092AF0775
:100A90001092AE070F900F900F9007C08091AE0795
:100AA0009091AF078935924020F40E947B038336F2
:100AB000A9F783E30E94730383E30E94730381E039
:100AC0008093B4078FEF91EE24E081509040204056
:100AD000E1F700C00000089523E02093FC07809117
:100AE000E7079091E80701969093E8078093E7075E
:100AF000FC01E751F84F20838FEF93EC29E0815000
:100B000090402040E1F700C0000008958FE19EE48E
:100B10000197F1F700C000008AE50E94900383323C
:100B2000A9F782E08093B207109200019FEF23ECB7
:100B300089E0915020408040E1F700C00000089516
:100B40008FE19EE40197F1F700C0000088E50E9464
:100B500090038332A9F784E08093B20710920001DA
:100B60009FEF23EC89E0915020408040E1F700C0E6
:100B70000000089585E30E949003863309F0E7CED4
:100B8000E9CE0895CF930E941E038C309105A1F108
:100B90008D30910521F0069709F06AC01AC0809146
:100BA000E7079091E80701979093E8078093E7079C
:100BB000FC01E751F84F80818093FC072FEF83EC15
:100BC00099E0215080409040E1F700C00000C0E073
:100BD00050C083E40E9473031092B90781E08093B0
:100BE000B7072FEF83EC99E0215080409040E1F768
:100BF00000C00000C1E03DC086E50E947303C1E073
:100C0000C093B9070E94F00363E281E40E94AD0340
:100C1000BC018EEC97E00E94BC198FE19EE4019725
:100C2000F1F700C0000063E282E40E94AD03BC0162
:100C300084EC97E00E94BC198FE19EE40197F1F7E4
:100C400000C0000063E28EE40E94AD03BC018AEBA9
:100C500097E00E94BC19C093B7079FEF23EC89E08F
:100C6000915020408040E1F700C00000C0E001C08A
:100C7000C0E08091B707882309F455C00E949C000A
:100C80008AEF91E09F938F9381E08F930E942801D8
:100C90000F900F900F90CC23A9F089E092E09F93E2
:100CA0008F9382E08F930E9428019FEF27EA81E6CD
:100CB000915020408040E1F700C000000F900F905D
:100CC0000F900BC08CE192E09F938F9382E08F9303
:100CD0000E9428010F900F900F9084EC97E09F9353
:100CE0008F938EEC97E09F938F938FE292E09F9388
:100CF0008F9383E08F930E9428018AEB97E09F9364
:100D00008F938EE392E09F938F9384E08F930E9462
:100D100028011092B7078DB79EB70C960FB6F894BE
:100D20009EBF0FBE8DBFCF9108958091B7078823D6
:100D300061F10E949C0080E592E09F938F9381E097
:100D40008F930E94280181E692E09F938F9382E027
:100D50008F930E94280181E792E09F938F9383E015
:100D60008F930E9428018EE792E09F938F9384E0F7
:100D70008F930E9428011092B7078DB79EB70C96EB
:100D80000FB6F8949EBF0FBE8DBF0E941E03833026
:100D9000910591F120F4029709F09BC008C08430BE
:100DA000910509F45DC00D9709F093C078C084E007
:100DB0008093FC0783E30E9473038091E70790917F
:100DC000E80701969093E8078093E707FC01E75155
:100DD000F84F2091FC07208381E090E09093FB077F
:100DE0008093FA079FEF23EC89E0915020408040E8
:100DF000E1F700C00000089585E08093FC0781E0E2
:100E000090E09093FB078093FA0784E30E947303BA
:100E10008FE39FE10197F1F700C000008AE50E948F
:100E200073038FE39FE10197F1F700C00000809109
:100E3000E7079091E80701969093E8078093E7070A
:100E4000FC01E751F84F2091FC0720839FEF23EC32
:100E500089E0915020408040E1F700C000000895F3
:100E600086E08093FC0783E30E9473038091E70789
:100E70009091E80701969093E8078093E707FC01BB
:100E8000E751F84F2091FC0720839FEF29E688E186
:100E9000915020408040E1F700C00000089580910B
:100EA000E7079091E80701979093E8078093E70799
:100EB000FC01E751F84F80818093FC070E94F0030A
:100EC0009FEF23EC89E0915020408040E1F700C083
:100ED000000008950E941E0384309105C9F138F482
:100EE0008230910561F0039709F099C015C08D30EB
:100EF000910509F449C0409709F091C060C081E0B4
:100F00008093B3072FEF83EC99E02150804090400D
:100F1000E1F700C0000083C082E08093B30784E360
:100F20000E94730384E30E9473038FE39FE10197A0
:100F3000F1F700C0000088E50E9473039FEF23ECE7
:100F400089E0915020408040E1F700C0000067C078
:100F500083E08093B30784E30E94730384E30E94D9
:100F600073038FE39FE10197F1F700C0000088E56C
:100F70000E9473039FEF23EC89E091502040804052
:100F8000E1F700C000004BC08091E7079091E807AF
:100F900001979093E8078093E707FC01E751F84F2A
:100FA00080818093FC070E94F0039FEF23EC89E08F
:100FB000915020408040E1F700C0000030C0809197
:100FC000B307813049F483E30E94730383E30E94F3
:100FD000730380E70E9473038091B307823049F462
:100FE00083E30E94730383E30E94730381E70E94FB
:100FF00073038091B307833049F483E30E94730342
:1010000083E30E94730382E70E9473039FEF29E644
:1010100088E1915020408040E1F700C000008091BD
:10102000B707882309F47BC00E949C008091B30716
:10103000811129C083E992E09F938F9381E08F9380
:101040000E94280182EA92E09F938F9382E08F931F
:101050000E94280181EB92E09F938F9383E08F930E
:101060000E94280180EC92E09F938F9384E08F93FD
:101070000E9428018DB79EB70C960FB6F8949EBFBC
:101080000FBE8DBF4AC08130B9F48FEC92E09F93C0
:101090008F9381E08F930E94280180EE92E09F93CE
:1010A0008F9383E08F930E9428010F900F900F90F1
:1010B0000F900F900F9031C08230B9F48FEC92E016
:1010C0009F938F9381E08F930E94280181EF92E09C
:1010D0009F938F9383E08F930E9428010F900F902E
:1010E0000F900F900F900F9018C08330B1F48FECD9
:1010F00092E09F938F9381E08F930E94280182E07A
:1011000093E09F938F9383E08F930E9428010F9029
:101110000F900F900F900F900F901092B7070895B7
:101120008091B707882309F45EC00E949C008091DB
:10113000FA079091FB078130910549F583E193E02F
:101140009F938F9381E08F930E94280188E293E020
:101150009F938F9382E08F930E9428018BE393E00B
:101160009F938F9383E08F930E94280187E493E0FD
:101170009F938F9384E08F930E9428018DB79EB731
:101180000C960FB6F8949EBF0FBE8DBF2AC0029773
:1011900041F58CE593E09F938F9381E08F930E94BC
:1011A000280181E793E09F938F9382E08F930E94C1
:1011B000280183E893E09F938F9383E08F930E94AD
:1011C000280180E993E09F938F9384E08F930E949E
:1011D00028018DB79EB70C960FB6F8949EBF0FBE30
:1011E0008DBF1092B7070E941E038630910509F447
:1011F000A7C080F483309105E1F120F4029709F053
:1012000048C116C08430910509F454C0059709F00F
:1012100040C171C08830910509F4D5C008F4B5C04B
:101220008B30910509F4F4C00D9709F032C108C163
:1012300081E30E94730387E08093FC070E94F00320
:101240008091E7079091E80701969093E8078093D3
:10125000E707FC01E751F84F2091FC0720839FEF3F
:1012600023EC89E0915020408040E1F700C000006D
:10127000089581E30E9473038AE08093FC070E9433
:10128000F0038091E7079091E80701969093E807B3
:101290008093E707FC01E751F84F2091FC0720837A
:1012A0009FEF23EC89E0915020408040E1F700C09F
:1012B0000000089581E30E94730389E08093FC0796
:1012C0000E94F0038091E7079091E80701969093C0
:1012D000E8078093E707FC01E751F84F2091FC07EE
:1012E00020839FEF23EC89E0915020408040E1F77C
:1012F00000C0000008958091FA079091FB070297C3
:10130000A9F482E30E9473030E94F00328E0209373
:10131000FC078091E7079091E80701969093E80712
:101320008093E707FC01E751F84F20839FEF23EC00
:1013300089E0915020408040E1F700C0000008950E
:101340008091FA079091FB070297A9F482E30E942B
:1013500073030E94F0032CE02093FC078091E707C1
:101360009091E80701969093E8078093E707FC01C6
:10137000E751F84F20839FEF23EC89E09150204004
:101380008040E1F700C0000008958091FA07909135
:10139000FB07029771F483E30E9473038FE19EE4DD
:1013A0000197F1F700C000008AE40E9473030E94D5
:1013B000F0039FEF23EC89E0915020408040E1F75B
:1013C00000C0000008958091FA079091FB070297F2
:1013D000A9F482E30E9473030E94F0032DE020939E
:1013E000FC078091E7079091E80701969093E80742
:1013F0008093E707FC01E751F84F20839FEF23EC30
:1014000089E0915020408040E1F700C0000008953D
:101410008091FA079091FB079093F9078093F80762
:1014200082E090E09093FB078093FA079FEF23EC14
:1014300089E0915020408040E1F700C0000008950D
:101440008091FA079091FB07029749F48091F80781
:101450009091F9079093FB078093FA070FC0809152
:10146000E7079091E80701979093E8078093E707D3
:10147000FC01E751F84F80818093FC070E94F00344
:101480009FEF23EC89E0915020408040E1F700C0BD
:10149000000008950E941E038830910509F440C0A1
:1014A00038F48230910531F1049709F07AC04EC0CA
:1014B0008A30910509F460C00D9709F072C08091DF
:1014C000E7079091E80701979093E8078093E70773
:1014D000FC01E751F84F80818093FC070E94F003E4
:1014E0002FEF83EC99E0215080409040E1F700C05D
:1014F000000057C063E284E70E94AD03BC018EEC9C
:1015000097E00E94BC192FEF83EC99E021508040B6
:101510009040E1F700C0000081E08093B70741C030
:1015200063E287E60E94AD03BC018EEC97E00E9467
:10153000BC192FEF83EC99E0215080409040E1F7F7
:1015400000C0000081E08093B7072BC063E285E70D
:101550000E94AD03BC0184EC97E00E94BC192FEF00
:1015600083EC99E0215080409040E1F700C00000FA
:1015700081E08093B70715C063E28AE60E94AD035D
:10158000BC0184EC97E00E94BC192FEF83EC99E03A
:10159000215080409040E1F700C0000081E080933E
:1015A000B7078091B7078823A9F10E949C0081EAC0
:1015B00093E09F938F9381E08F930E9428018EEC9C
:1015C00097E09F938F9385EB93E09F938F9382E0B7
:1015D0008F930E94280184EC97E09F938F938FEB69
:1015E00093E09F938F9383E08F930E9428012FEFC6
:1015F00083EC99E0215080409040E1F700C000006A
:101600001092B7078DB79EB70D960FB6F8949EBF90
:101610000FBE8DBF0895CF93DF930E941E038C30C1
:101620009105E1F00D9741F58091E7079091E8076A
:1016300001979093E8078093E707FC01E751F84F83
:1016400080818093FC072FEF83EC99E0215080404C
:101650009040E1F700C00000C0E00FC081E080933F
:10166000B7072FEF83EC99E0215080409040E1F7DD
:1016700000C00000C1E001C0C0E08091B70788232E
:1016800009F460C00E949C0088EC93E09F938F93C4
:1016900081E08F930E9428010F900F900F90CC2330
:1016A00009F443C063E285E40E94AD03C82FD92F3B
:1016B00063E284E40E94AD03DF93CF939F938F9303
:1016C0008FED93E09F938F9382E08F930E94280188
:1016D0008FE39CE90197F1F700C0000063E287E423
:1016E0000E94AD03C82FD92F63E286E40E94AD03A8
:1016F000DF93CF939F938F938FEE93E09F938F937E
:1017000083E08F930E9428019FEF25EA8EE091509D
:1017100020408040E1F700C000008DB79EB70E96D4
:101720000FB6F8949EBF0FBE8DBF8FEF93E09F93CF
:101730008F9384E08F930E9428011092B7070F9037
:101740000F900F90DF91CF9108950E941E03883073
:10175000910509F447C060F48330910509F458C03D
:101760008430910509F480C0029709F0A8C024C014
:101770008A30910509F48EC008F460C00D9709F015
:101780009EC08091E7079091E80701979093E80742
:101790008093E707FC01E751F84F80818093FC07B5
:1017A0000E94F0032FEF83EC99E02150804090409D
:1017B000E1F700C0000083C063E281E70E94AD034F
:1017C000BC018EEC97E00E94BC192FEF83EC99E0EE
:1017D000215080409040E1F700C0000081E08093FC
:1017E000B7076DC063E281E60E94AD03BC018EECD9
:1017F00097E00E94BC192FEF83EC99E021508040C4
:101800009040E1F700C0000081E08093B70757C027
:1018100063E289E70E94AD03BC0184EC97E00E947B
:10182000BC192FEF83EC99E0215080409040E1F704
:1018300000C0000081E08093B70741C063E288E602
:101840000E94AD03BC0184EC97E00E94BC192FEF0D
:1018500083EC99E0215080409040E1F700C0000007
:1018600081E08093B7072BC063E280E70E94AD035D
:10187000BC018AEB97E00E94BC192FEF83EC99E042
:10188000215080409040E1F700C0000081E080934B
:10189000B70715C063E28CE60E94AD03BC018AEB7A
:1018A00097E00E94BC192FEF83EC99E02150804013
:1018B0009040E1F700C0000081E08093B70780917D
:1018C000B7078823C1F10E949C0088E094E09F93B1
:1018D0008F9381E08F930E9428018EEC97E09F9375
:1018E0008F938BE194E09F938F9382E08F930E947C
:1018F000280184EC97E09F938F9383E294E09F9379
:101900008F9383E08F930E9428018AEB97E09F9347
:101910008F938BE294E09F938F9384E08F930E9448
:1019200028011092B7078DB79EB742960FB6F8946C
:101930009EBF0FBE8DBF08950E941E038830910583
:1019400009F440C038F48230910531F1049709F070
:101950007AC04EC08A30910509F460C00D9709F035
:1019600072C08091E7079091E80701979093E8078C
:101970008093E707FC01E751F84F80818093FC07D3
:101980000E94F0032FEF83EC99E0215080409040BB
:10199000E1F700C0000057C063E281E50E94AD039B
:1019A000BC018EEC97E00E94BC192FEF83EC99E00C
:1019B000215080409040E1F700C0000081E080931A
:1019C000B70741C063E281E40E94AD03BC018EEC25
:1019D00097E00E94BC192FEF83EC99E021508040E2
:1019E0009040E1F700C0000081E08093B7072BC072
:1019F00063E280E50E94AD03BC018AEB97E00E94A0
:101A0000BC192FEF83EC99E0215080409040E1F722
:101A100000C0000081E08093B70715C063E28CE44A
:101A20000E94AD03BC018AEB97E00E94BC192FEF26
:101A300083EC99E0215080409040E1F700C0000025
:101A400081E08093B7078091B707882361F10E94F6
:101A50009C0088E094E09F938F9381E08F930E9495
:101A600028018EEC97E09F938F938BE194E09F93F6
:101A70008F9382E08F930E9428018AEB97E09F93D7
:101A80008F938BE294E09F938F9383E08F930E94D8
:101A900028011092B7078DB79EB70D960FB6F89430
:101AA0009EBF0FBE8DBF08958091B707882321F197
:101AB0000E949C0083E394E09F938F9381E08F9337
:101AC0000E94280188E494E09F938F9382E08F9393
:101AD0000E94280189E594E09F938F9384E08F937F
:101AE0000E9428011092B7078DB79EB709960FB6CE
:101AF000F8949EBF0FBE8DBF0E941E0389309105D2
:101B000099F120F4039709F048C021C08C30910569
:101B1000C1F10D9709F041C08091E7079091E80766
:101B200001979093E8078093E707FC01E751F84F8E
:101B300080818093FC070E94F0039FEF23EC89E0F3
:101B4000915020408040E1F700C00000089584E3F8
:101B50000E9473039FEF23EC89E091502040804066
:101B6000E1F700C00000089585E30E9473039FEF32
:101B700023EC89E0915020408040E1F700C0000054
:101B8000089586E30E9473039FEF23EC89E0915050
:101B900020408040E1F700C0000008958091B70721
:101BA000882381F10E949C0080E694E09F938F93AC
:101BB00081E08F930E94280163E28BE40E94AD03D1
:101BC0009F938F9385E794E09F938F9382E08F9309
:101BD0000E94280163E28AE40E94AD039F938F93E1
:101BE00084E894E09F938F9383E08F930E94280171
:101BF0001092B7078DB79EB70D960FB6F8949EBF9B
:101C00000FBE8DBF0E941E030D97D1F48091E70790
:101C10009091E80701979093E8078093E707FC010C
:101C2000E751F84F80818093FC070E94F0039FEFFB
:101C300023EC89E0915020408040E1F700C0000093
:101C400008958091B707882309F444C00E949C003E
:101C500063E288E40E94AD039F938F9384E994E04C
:101C60009F938F9381E08F930E94280163E289E420
:101C70000E94AD039F938F9382EA94E09F938F938A
:101C800082E08F930E94280163E28CE40E94AD03FE
:101C90009F938F9381EB94E09F938F9383E08F9337
:101CA0000E94280163E28DE40E94AD039F938F930D
:101CB00083EC94E09F938F9384E08F930E9428019C
:101CC0001092B7078DB79EB744960FB6F8949EBF93
:101CD0000FBE8DBF0E941E030D97D1F48091E707C0
:101CE0009091E80701979093E8078093E707FC013C
:101CF000E751F84F80818093FC070E94F0039FEF2B
:101D000023EC89E0915020408040E1F700C00000C2
:101D100008950E941E0383309105C1F18D30910515
:101D200021F0029709F047C01BC08091E70790910E
:101D3000E80701979093E8078093E707FC01E751D4
:101D4000F84F80818093FC070E94F0032FEF83EC13
:101D500099E0215080409040E1F700C000002BC086
:101D600063E28DE60E94AD03BC018EEC97E00E9419
:101D7000BC192FEF83EC99E0215080409040E1F7AF
:101D800000C0000081E08093B70715C063E28EE6D3
:101D90000E94AD03BC0184EC97E00E94BC192FEFB8
:101DA00083EC99E0215080409040E1F700C00000B2
:101DB00081E08093B7078091B707882361F10E9483
:101DC0009C0087ED94E09F938F9381E08F930E9416
:101DD00028018EEC97E09F938F938CEE94E09F9375
:101DE0008F9382E08F930E94280184EC97E09F9369
:101DF0008F938CEF94E09F938F9383E08F930E9457
:101E000028011092B7078DB79EB70D960FB6F894BC
:101E10009EBF0FBE8DBF08950E941E03883091059E
:101E200009F447C060F48330910509F458C0843048
:101E3000910509F480C0029709F0A8C024C08A3037
:101E4000910509F48EC008F460C00D9709F09EC09A
:101E50008091E7079091E80701979093E8078093B6
:101E6000E707FC01E751F84F80818093FC070E944F
:101E7000F0032FEF83EC99E0215080409040E1F790
:101E800000C0000083C063E285E70E94AD03BC018F
:101E90008EEC97E00E94BC192FEF83EC99E0215063
:101EA00080409040E1F700C0000081E08093B707D8
:101EB0006DC063E286E70E94AD03BC018EEC97E043
:101EC0000E94BC192FEF83EC99E021508040904094
:101ED000E1F700C0000081E08093B70757C063E2DC
:101EE00087E70E94AD03BC0184EC97E00E94BC1917
:101EF0002FEF83EC99E0215080409040E1F700C043
:101F0000000081E08093B70741C063E288E70E9448
:101F1000AD03BC0184EC97E00E94BC192FEF83EC69
:101F200099E0215080409040E1F700C0000081E03E
:101F30008093B7072BC063E289E70E94AD03BC0121
:101F40008AEB97E00E94BC192FEF83EC99E02150B7
:101F500080409040E1F700C0000081E08093B70727
:101F600015C063E28AE70E94AD03BC018AEB97E0EB
:101F70000E94BC192FEF83EC99E0215080409040E3
:101F8000E1F700C0000081E08093B7078091B707B8
:101F90008823C1F10E949C008EE095E09F938F936F
:101FA00081E08F930E9428018EEC97E09F938F939E
:101FB0008BE194E09F938F9382E08F930E9428019E
:101FC00084EC97E09F938F9383E294E09F938F93A9
:101FD00083E08F930E9428018AEB97E09F938F9371
:101FE0008BE294E09F938F9384E08F930E9428016B
:101FF0001092B7078DB79EB742960FB6F8949EBF62
:102000000FBE8DBF08950E941E0383309105C1F15C
:102010008D30910521F0029709F047C01BC08091D7
:10202000E7079091E80701979093E8078093E70707
:10203000FC01E751F84F80818093FC070E94F00378
:102040002FEF83EC99E0215080409040E1F700C0F1
:1020500000002BC063E28BE60E94AD03BC018EEC56
:1020600097E00E94BC192FEF83EC99E0215080404B
:102070009040E1F700C0000081E08093B70715C0F1
:1020800063E28BE60E94AD03BC0184EC97E00E9402
:10209000BC192FEF83EC99E0215080409040E1F78C
:1020A00000C0000081E08093B7078091B7078823C4
:1020B00061F10E949C0082E295E09F938F9381E002
:1020C0008F930E9428018EEC97E09F938F9387E374
:1020D00095E09F938F9382E08F930E94280184EC78
:1020E00097E09F938F938BE495E09F938F9383E08A
:1020F0008F930E9428011092B7078DB79EB70D9657
:102100000FB6F8949EBF0FBE8DBF08950E941E03A8
:1021100083309105C1F18D30910521F0029709F0CE
:1021200047C01BC08091E7079091E8070197909303
:10213000E8078093E707FC01E751F84F808180931F
:10214000FC070E94F0032FEF83EC99E021508040C0
:102150009040E1F700C000002BC063E28AE60E94D5
:10216000AD03BC018EEC97E00E94BC192FEF83EC0D
:1021700099E0215080409040E1F700C0000081E0EC
:102180008093B70715C063E28AE60E94AD03BC01E5
:1021900084EC97E00E94BC192FEF83EC99E021506A
:1021A00080409040E1F700C0000081E08093B707D5
:1021B0008091B707882361F10E949C008DE595E02E
:1021C0009F938F9381E08F930E9428018EEC97E07C
:1021D0009F938F9387E395E09F938F9382E08F93F4
:1021E0000E94280184EC97E09F938F938BE495E005
:1021F0009F938F9383E08F930E9428011092B707DB
:102200008DB79EB70D960FB6F8949EBF0FBE8DBFCB
:1022100008950E941E0383309105C1F18D30910510
:1022200021F0029709F047C01BC08091E707909109
:10223000E80701979093E8078093E707FC01E751CF
:10224000F84F80818093FC070E94F0032FEF83EC0E
:1022500099E0215080409040E1F700C000002BC081
:1022600063E28CE60E94AD03BC018EEC97E00E9415
:10227000BC192FEF83EC99E0215080409040E1F7AA
:1022800000C0000081E08093B70715C063E28CE6D0
:102290000E94AD03BC0184EC97E00E94BC192FEFB3
:1022A00083EC99E0215080409040E1F700C00000AD
:1022B00081E08093B7078091B707882361F10E947E
:1022C0009C0082E795E09F938F9381E08F930E941B
:1022D00028018EEC97E09F938F9387E395E09F937F
:1022E0008F9382E08F930E94280184EC97E09F9364
:1022F0008F938BE495E09F938F9383E08F930E945D
:1023000028011092B7078DB79EB70D960FB6F894B7
:102310009EBF0FBE8DBF08950E941E03833091059E
:10232000C1F18D30910521F0029709F047C01BC023
:102330008091E7079091E80701979093E8078093D1
:10234000E707FC01E751F84F80818093FC070E946A
:10235000F0032FEF83EC99E0215080409040E1F7AB
:1023600000C000002BC063E288E60E94AD03BC0100
:102370008EEC97E00E94BC192FEF83EC99E021507E
:1023800080409040E1F700C0000081E08093B707F3
:1023900015C063E289E60E94AD03BC0184EC97E0BE
:1023A0000E94BC192FEF83EC99E0215080409040AF
:1023B000E1F700C0000081E08093B7078091B70784
:1023C0008823A1F10E949C0089E895E09F938F9358
:1023D00081E08F930E9428018CE995E09F938F9371
:1023E00082E08F930E9428018EEC97E09F938F9359
:1023F0008AEA95E09F938F9383E08F930E94280150
:1024000084EC97E09F938F938EEB95E09F938F934F
:1024100084E08F930E9428011092B7078DB79EB772
:1024200040960FB6F8949EBF0FBE8DBF08950E94D0
:102430001E0389309105C1F18D30910521F003977C
:1024400009F047C01BC08091E7079091E80701970A
:102450009093E8078093E707FC01E751F84F8081EC
:102460008093FC070E94F0032FEF83EC99E021504A
:1024700080409040E1F700C000002BC063E28FE68F
:102480000E94AD03BC018EEC97E00E94BC192FEFB7
:1024900083EC99E0215080409040E1F700C00000BB
:1024A00081E08093B70715C063E280E70E94AD0327
:1024B000BC0184EC97E00E94BC192FEF83EC99E0FB
:1024C000215080409040E1F700C0000081E08093FF
:1024D000B7078091B707882361F10E949C0082EDC5
:1024E00095E09F938F9381E08F930E9428018EEC5B
:1024F00097E09F938F938AEA95E09F938F9382E072
:102500008F930E94280184EC97E09F938F938EEB2A
:1025100095E09F938F9383E08F930E942801109200
:10252000B7078DB79EB70D960FB6F8949EBF0FBE36
:102530008DBF08950E941E038930910589F18D3069
:10254000910519F00397D9F51BC08091E707909189
:10255000E80701979093E8078093E707FC01E751AC
:10256000F84F80818093FC070E94F0032FEF83ECEB
:1025700099E0215080409040E1F700C000001FC06A
:1025800081E70E9473032FEF83EC99E02150804094
:102590009040E1F700C0000081E08093B7070FC0D2
:1025A00082E70E9473032FEF83EC99E02150804073
:1025B0009040E1F700C0000081E08093B707809170
:1025C000B707882361F10E949C0087EE95E09F93F6
:1025D0008F9381E08F930E9428018EEC97E09F9368
:1025E0008F938CEF95E09F938F9382E08F930E945F
:1025F000280184EC97E09F938F9380E196E09F936E
:102600008F9383E08F930E9428011092B7078DB7B4
:102610009EB70D960FB6F8949EBF0FBE8DBF08955E
:102620000E941E038C30910509F457C08D3091052E
:1026300021F00B9709F0B7C026C08091FA0790915E
:10264000FB078430910531F001979093FB0780934D
:10265000FA070FC08091E7079091E80701979093E0
:10266000E8078093E707FC01E751F84F80818093EA
:10267000FC072FEF85EA9EE0215080409040E1F773
:1026800000C0000090C08091FA079091FB0701966E
:102690008131910538F080E190E09093FB078093C1
:1026A000FA070EC08430910528F09093FB078093C1
:1026B000FA0706C084E090E09093FB078093FA0746
:1026C0002FEF85EA9EE0215080409040E1F700C066
:1026D000000081E08093B70766C08091FA0790916F
:1026E000FB078430910521F481E60E94730352C0F8
:1026F0008530910521F482E40E9473034BC086303B
:10270000910521F483E40E94730344C0873091054E
:1027100021F484E40E9473033DC08830910521F4C4
:1027200085E40E94730336C08930910521F486E464
:102730000E9473032FC08A30910521F487E40E9420
:10274000730328C08B30910521F488E40E94730341
:1027500021C08C30910521F489E40E9473031AC0D2
:102760008D30910521F48AE40E94730313C08E30EA
:10277000910521F48BE40E9473030CC08F30910506
:1027800021F48CE40E94730305C0409719F48DE492
:102790000E9473032FEF83EC99E02150804090401A
:1027A000E1F700C000008091FA079091FB078A30A2
:1027B000910509F466C090F486309105D1F138F4A2
:1027C0008430910511F1059709F0A0C028C0883028
:1027D000910509F442C008F04AC035C08D3091051A
:1027E00009F46DC040F48B30910509F454C00C9786
:1027F00009F08CC05AC08F30910509F474C008F4F8
:1028000068C0409709F082C078C087E0E4E2F6E053
:10281000AEECB7E001900D928A95E1F777C087E0C2
:10282000EBE2F6E0AEECB7E001900D928A95E1F7AD
:102830006DC087E0E2E3F6E0AEECB7E001900D9208
:102840008A95E1F763C087E0E9E3F6E0AEECB7E034
:1028500001900D928A95E1F759C087E0E0E4F6E037
:10286000AEECB7E001900D928A95E1F74FC087E09A
:10287000E7E4F6E0AEECB7E001900D928A95E1F75F
:1028800045C087E0EEE4F6E0AEECB7E001900D92D3
:102890008A95E1F73BC087E0E5E5F6E0AEECB7E00E
:1028A00001900D928A95E1F731C087E0ECE5F6E002
:1028B000AEECB7E001900D928A95E1F727C087E072
:1028C000E3E6F6E0AEECB7E001900D928A95E1F711
:1028D0001DC087E0EAE6F6E0AEECB7E001900D92AD
:1028E0008A95E1F713C087E0E1E7F6E0AEECB7E0E8
:1028F00001900D928A95E1F709C087E0E8E7F6E0DC
:10290000AEECB7E001900D928A95E1F78091B707A0
:10291000882341F10E949C008FE796E09F938F935C
:1029200081E08F930E9428018EEC97E09F938F9314
:1029300084E996E09F938F9382E08F930E94280111
:102940008BE996E09F938F9384E08F930E942801F8
:102950001092B7078DB79EB70B960FB6F8949EBF2F
:102960000FBE8DBF08958091B707882309F482C0F8
:102970000E949C008091FA079091FB07813091059D
:1029800049F58EEA96E09F938F9381E08F930E94A2
:10299000280182EC96E09F938F9382E08F930E94B0
:1029A000280181ED96E09F938F9383E08F930E949F
:1029B00028018EED96E09F938F9384E08F930E9481
:1029C00028018DB79EB70C960FB6F8949EBF0FBE28
:1029D0008DBF4EC08230910549F585EF96E09F93FB
:1029E0008F9381E08F930E94280189E097E09F9365
:1029F0008F9382E08F930E94280185E197E09F9357
:102A00008F9383E08F930E94280182E297E09F9347
:102A10008F9384E08F930E9428018DB79EB70C9608
:102A20000FB6F8949EBF0FBE8DBF22C0039701F56D
:102A300081E397E09F938F9381E08F930E94280119
:102A400086E497E09F938F9382E08F930E94280102
:102A500083E597E09F938F9383E08F930E942801F3
:102A60008DB79EB709960FB6F8949EBF0FBE8DBF67
:102A70001092B7070E941E038730910509F4D9C050
:102A8000A0F48430910509F472C038F482309105C5
:102A900019F1039709F0B8C14CC08530910509F4CC
:102AA00084C0069709F0B0C1A2C08A30910509F42C
:102AB00026C140F48830910509F4DDC0099709F07A
:102AC000A3C1FBC08C30910509F43BC108F459C186
:102AD0000D9709F099C168C18EE08093FC0784E0EE
:102AE00090E09093FB078093FA070E94F00387E041
:102AF000E4E2F6E0AEECB7E001900D928A95E1F7E2
:102B00008091E7079091E80701969093E8078093FA
:102B1000E707FC01E751F84F2091FC0720839FEF66
:102B200023EC89E0915020408040E1F700C0000094
:102B300008958FE08093FC070E94F0038091E707DF
:102B40009091E80701969093E8078093E707FC01CE
:102B5000E751F84F2091FC0720839FEF23EC89E099
:102B6000915020408040E1F700C00000089582E1CC
:102B70008093FC070E94F0038091E7079091E8079B
:102B800001969093E8078093E707FC01E751F84F1F
:102B90002091FC0720839FEF23EC89E09150204097
:102BA0008040E1F700C0000008958091FA079091FD
:102BB000FB07029791F40E94F00323E12093FC07A6
:102BC0008091E7079091E80701969093E80780933A
:102BD000E707FC01E751F84F20839FEF23EC89E0E2
:102BE000915020408040E1F700C00000089580919E
:102BF000FA079091FB07029791F40E94F00320E1FD
:102C00002093FC078091E7079091E8070196909345
:102C1000E8078093E707FC01E751F84F20839FEF17
:102C200023EC89E0915020408040E1F700C0000093
:102C300008958091FA079091FB07029791F40E9402
:102C4000F00324E12093FC078091E7079091E807C7
:102C500001969093E8078093E707FC01E751F84F4E
:102C600020839FEF23EC89E0915020408040E1F7E2
:102C700000C0000008958091FA079091FB07029729
:102C800091F40E94F00325E12093FC078091E7076F
:102C90009091E80701969093E8078093E707FC017D
:102CA000E751F84F20839FEF23EC89E091502040BB
:102CB0008040E1F700C0000008958091FA079091EC
:102CC000FB07039791F40E94F00325E12093FC0792
:102CD0008091E7079091E80701969093E807809329
:102CE000E707FC01E751F84F20839FEF23EC89E0D1
:102CF000915020408040E1F700C00000089580918D
:102D0000FA079091FB07039791F40E94F00321E1E9
:102D10002093FC078091E7079091E8070196909334
:102D2000E8078093E707FC01E751F84F20839FEF06
:102D300023EC89E0915020408040E1F700C0000082
:102D400008958091FA079091FB07039781F427E19A
:102D50002093FC078091E7079091E80701969093F4
:102D6000E8078093E707FC01E751F84F20839FEFC6
:102D700023EC89E0915020408040E1F700C0000042
:102D800008958091FA079091FB0701969093FB07B5
:102D90008093FA079FEF23EC89E091502040804018
:102DA000E1F700C0000008958091FA079091FB07B9
:102DB0008130910531F001979093FB078093FA07DA
:102DC00018C08091E7079091E80701979093E80772
:102DD0008093E707FC01E751F84F80818093FC075F
:102DE00081E60E9473038FE39FE10197F1F700C032
:102DF00000000E94F0039FEF23EC89E091502040F7
:102E00008040E1F700C0000008950E941E03833057
:102E10009105B1F120F4029709F051C021C084302E
:102E20009105F1F10D9709F04AC08091E707909163
:102E3000E80701979093E8078093E707FC01E751C3
:102E4000F84F80818093FC070E94F0032FEF83EC02
:102E500099E0215080409040E1F700C000002FC071
:102E600082E60E9473032FEF83EC99E021508040AB
:102E70009040E1F700C0000081E08093B7071FC0D9
:102E800084E60E9473032FEF83EC99E02150804089
:102E90009040E1F700C0000081E08093B7070FC0C9
:102EA00086E60E9473032FEF83EC99E02150804067
:102EB0009040E1F700C0000081E08093B707809167
:102EC000B707882361F10E949C0085E697E09F93F5
:102ED0008F9381E08F930E9428018BE797E09F9367
:102EE0008F9382E08F930E94280188E897E09F9358
:102EF0008F9383E08F930E94280189E997E09F9345
:102F00008F9384E08F930E9428011092B7078DB7AA
:102F10009EB70C960FB6F8949EBF0FBE8DBF089556
:102F20000E94D2000E942A020E9434030E94F703EA
:102F30007894E091E707F091E807E751F84F1082A5
:102F40001092FC070E949C0088EA97E09F938F9361
:102F500082E08F930E9428010F900F900F90C1E0A4
:102F60000E941E03019729F51092FC071092E807B2
:102F70001092E70782E60E9473038FE19EE40197B7
:102F8000F1F700C0000081E30E9473038FE19EE42B
:102F90000197F1F700C000001092B207C093000142
:102FA0009FEF24E38CE0915020408040E1F700C087
:102FB0000000E091FC07F0E0E831F10508F048C0BE
:102FC000EC5CFF4F0C94B6190E94050441C00E94AE
:102FD000C2053EC00E9495063BC00E94900838C0C2
:102FE0000E94B31435C00E946A0732C00E944A0A88
:102FF0002FC00E94A50B2CC00E949C0C29C00E94CF
:103000000B0B26C00E94540D23C00E94CE0D20C081
:103010000E94210E1DC00E9410131AC00E940310AE
:1030200017C00E94861014C00E94091111C00E948E
:103030000C0F0EC00E94890E0BC00E948C1108C09C
:103040000E94171205C00E949A1202C00E94051722
:103050008FE39CE90197F1F700C0000081CF505841
:10306000BB27AA270ED0E5C0D6D030F0DBD020F0A9
:1030700031F49F3F11F41EF4CBC00EF4E095E7FB52
:10308000C1C0E92FE7D080F3BA176207730784073E
:10309000950718F071F49EF5FFC00EF4E0950B2E25
:1030A000BA2FA02D0B01B90190010C01CA01A0019A
:1030B0001124FF27591B99F0593F50F4503E68F1F5
:1030C0001A16F040A22F232F342F4427585FF3CF36
:1030D000469537952795A795F0405395C9F77EF407
:1030E0001F16BA0B620B730B840BBAF09150A1F050
:1030F000FF0FBB1F661F771F881FC2F70EC0BA0FD6
:10310000621F731F841F48F4879577956795B7955D
:10311000F7959E3F08F0B3CF9395880F08F0992755
:10312000EE0F97958795089504D06894B111B5C0B6
:10313000089598D088F09F5790F0B92F9927B751EC
:10314000A0F0D1F0660F771F881F991F1AF0BA956B
:10315000C9F712C0B13081F09FD0B1E008959CC092
:10316000672F782F8827B85F39F0B93FCCF3869561
:1031700077956795B395D9F73EF4909580957095BE
:1031800061957F4F8F4F9F4F0895E89409C097FB3B
:103190003EF490958095709561957F4F8F4F9F4F2E
:1031A0009923A9F0F92F96E9BB279395F695879572
:1031B00077956795B795F111F8CFFAF4BB0F11F435
:1031C00060FF1BC06F5F7F4F8F4F9F4F16C08823DC
:1031D00011F096E911C0772321F09EE8872F762F12
:1031E00005C0662371F096E8862F70E060E02AF053
:1031F0009A95660F771F881FDAF7880F969587953F
:1032000097F9089597F99F6780E870E060E0089566
:103210009FEF80EC089500240A94161617061806EE
:103220000906089500240A941216130614060506CA
:103230000895092E0394000C11F4882352F0BB0F5B
:1032400040F4BF2B11F460FF04C06F5F7F4F8F4FBE
:103250009F4F089557FD9058440F551F59F05F3FF9
:1032600071F04795880F97FB991F61F09F3F79F0A8
:1032700087950895121613061406551FF2CF46952A
:10328000F1DF08C0161617061806991FF1CF8695AC
:103290007105610508940895E894BB276627772790
:1032A000CB0197F908950BD0C4CFB5DF28F0BADF72
:1032B00018F0952309F0A6CFABCF1124EECFCADFCB
:1032C000A0F3959FD1F3950F50E0551F629FF00139
:1032D000729FBB27F00DB11D639FAA27F00DB11D92
:1032E000AA1F649F6627B00DA11D661F829F22271B
:1032F000B00DA11D621F739FB00DA11D621F839FA2
:10330000A00D611D221F749F3327A00D611D231F77
:10331000849F600D211D822F762F6A2F11249F57C5
:1033200050408AF0E1F088234AF0EE0FFF1FBB1FE8
:10333000661F771F881F91505040A9F79E3F510587
:1033400070F060CFAACF5F3FECF3983EDCF3869538
:1033500077956795B795F795E7959F5FC1F7FE2B32
:10336000880F911D9695879597F90895EE0FFF1F89
:103370000590F491E02D0994FB01DC0101900D9280
:103380000020E1F70895FB019F01E8944230C4F06A
:103390004532B4F44A3029F497FB1EF49095819598
:1033A0009F4F642F77270E94F419805D8A330CF0B9
:1033B000895D8193CB010097A1F716F45DE25193EB
:1033C0001082C9010C94E419DC01FC01672F719192
:1033D0007723E1F7329704C07C916D9370836291FB
:1033E000AE17BF07C8F30895AA1BBB1B51E107C066
:1033F000AA1FBB1FA617B70710F0A61BB70B881F85
:10340000991F5A95A9F780959095BC01CD01089513
:04341000F894FFCF5E
:103414000143616C6962726174696F6E20436F6D00
:10342400706C657465004220746F2043616C69623E
:10343400726174652044756374004320746F204383
:10344400616C696272617465204C696E650020204C
:103454005072657373204420746F205374617274C6
:1034640020200020205354415455533A434F4E4E8C
:1034740045435445442020005354415455533A4441
:103484004953434F4E4E4543544544002A2A485914
:103494004252494420524F424F20323031362A2A78
:1034A40000205245442D342020202020202020427A
:1034B4004C55452D36002020524544202020202004
:1034C400202020204D454E552D23002020424C55D0
:1034D40045202020202020204D454E552D230043FB
:1034E400616C6962726174652D432020204D454EE4
:1034F400552D23002043616C6962726174696E67A3
:103504002E2E2E2E2E20202020002343616C696253
:10351400204D6F64652320200020202043616C69C6
:1035240062726174696E672E2E2E2E002020204355
:10353400616C6962726174652D3520202020004C15
:1035440053313D257320204C53323D2573004C6983
:103554006E653D257320202020526561642D2A006C
:103564002343697263756974204D6F646523202059
:1035740000312E48796272696420426173652020AB
:1035840000322E48796272696420546F7000332EC1
:103594005265747279204D6F646520204261636BBB
:1035A4002D41002343697263756974204D6F64650E
:1035B4002300312E5265747279204D6F6465203179
:1035C40000322E5265747279204D6F64652032008A
:1035D400332E5265747279204D6F64652033005028
:1035E40072657373204420746F2053746172740085
:1035F40020205265747279204D6F6465203120203B
:103604000020205265747279204D6F646520322049
:10361400200020205265747279204D6F6465203338
:103624002020002348796272696420426173652313
:10363400204261636B2D4100312E487962726964C6
:103644002062617365737065656400322E4D6F741A
:103654006F722050494400332E4C696E65205049E6
:1036640044202020204E6578742D2300342E456E8E
:103674006320436865636B2020204241434B2D4106
:1036840000352E50726F78696D69747920436865CE
:10369400636B00362E506F6C6520436865636B0066
:1036A400372E4A756E6374696F6E20436865636B69
:1036B40000234D6F746F72205049442320204261CF
:1036C400636B2D41004E6F726D203D202573004DBC
:1036D4006178203D2025730023456E636F64657215
:1036E40020446174612320204261636B2D410044B6
:1036F4004C743D25732020204452743D257300569C
:103704004C743D25732020205652743D257300527D
:103714006561642D2A202000234C696E6520504980
:10372400442320204261636B2D41004B70203D20D7
:103734002573004B69203D202573004B64203D20F8
:103744002573002342617365204D6F746F722320CB
:10375400204261636B2D410046726F6E742D3220DE
:1037640020204261636B2D380053746F702D2A0042
:103774002350524F58494D49545923202020424147
:10378400434B2D4100322E507820446F776E203DFC
:1037940020257300332E507820436C696D62203DE0
:1037A40020257300312E4A204C454654203D2025C7
:1037B4007300322E4A205249474854203D20257335
:1037C40000332E4A50554C53454C454654203D2019
:1037D400257300342E4A50554C534552494748549A
:1037E400203D2025733D00234C494441522044414F
:1037F40054412320204241434B2D4100312E4C693A
:10380400646172207570203D20257300322E4C694E
:1038140064617220446F776E203D20257300235726
:1038240069706572205049442320204261636B2DE6
:10383400410023504F4C4F4C552041524D232020E2
:103844004241434B2D4100312E53656E736F7220FC
:103854006461746120203D20257300322E54687207
:103864006573686F6C64203D202025730023504FDE
:103874004C4F4C55204752495023204241434B2D35
:10388400410023504F4C4F4C55205749504552232B
:1038940020204241434B2D410023445543542046AC
:1038A400414E2320204241434B2D410020204361BF
:1038B4006C6962726174652D4300322E496E6372C5
:1038C400656173652053706565643D257300382E0A
:1038D40044656372656173652053706565643D2555
:1038E4007300234455435420534552564F232020FC
:1038F4004241434B2D4100234752495020414E47FA
:103904004C452320204241434B2D4100322E496E29
:1039140063726561736520616E676C653D25730034
:10392400382E446563726561736520616E676C65EA
:103934003D2573005441534B2041005441534B20C7
:1039440042005441534B2043005441534B20440004
:103954005441534B2045005441534B20460054419D
:10396400534B2047005441534B2048005441534B80
:103974002049005441534B204A005441534B204B9F
:10398400005441534B204C005441534B204D0023D1
:10399400544F502053455155454E23202042414316
:1039A4004B2D4100202D25732D200053746172741A
:1039B4002D2A20202020204E6578742D23002348B2
:1039C400796272696420546F7023204261636B2DA5
:1039D4004100312E546F702053657175656E6365B7
:1039E40000322E4C69646172206461746100332E6C
:1039F4004475637420536572766F202020204E65D1
:103A040078742D2300342E447563742066616E200F
:103A140020204241434B2D4100352E576970657279
:103A24002050494400362E506F6C6F6C75206172C3
:103A34006D00372E506F6C6F6C75207769706572EE
:103A440000382E506F6C6F6C75204772697020427D
:103A540041434B2D4100392E536572766F204772D6
:103A64006970002A2E546F70204D6F746F7220435A
:103A74006865636B00234D4F544F525320434845B0
:103A8400434B23204241434B2D4100312E41726D63
:103A9400206D6F74696F6E00322E477269707065A5
:103AA40072206D6F74696F6E00332E576970657282
:0E3AB400206D6F74696F6E0068656C6C6F003A
:00000001FF
